{
  "contractName": "Election",
  "abi": [
    {
      "inputs": [
        {
          "internalType": "string",
          "name": "_name",
          "type": "string"
        },
        {
          "internalType": "string",
          "name": "_description",
          "type": "string"
        }
      ],
      "stateMutability": "nonpayable",
      "type": "constructor"
    },
    {
      "anonymous": false,
      "inputs": [
        {
          "indexed": true,
          "internalType": "uint256",
          "name": "candidateId",
          "type": "uint256"
        },
        {
          "indexed": false,
          "internalType": "string",
          "name": "name",
          "type": "string"
        }
      ],
      "name": "CandidateAdded",
      "type": "event"
    },
    {
      "anonymous": false,
      "inputs": [
        {
          "indexed": false,
          "internalType": "enum Election.ElectionState",
          "name": "newState",
          "type": "uint8"
        }
      ],
      "name": "ElectionStateChanged",
      "type": "event"
    },
    {
      "anonymous": false,
      "inputs": [
        {
          "indexed": true,
          "internalType": "address",
          "name": "voter",
          "type": "address"
        },
        {
          "indexed": true,
          "internalType": "uint256",
          "name": "candidateId",
          "type": "uint256"
        }
      ],
      "name": "VoteCast",
      "type": "event"
    },
    {
      "anonymous": false,
      "inputs": [
        {
          "indexed": true,
          "internalType": "address",
          "name": "voter",
          "type": "address"
        }
      ],
      "name": "VoterRegistered",
      "type": "event"
    },
    {
      "inputs": [],
      "name": "admin",
      "outputs": [
        {
          "internalType": "address",
          "name": "",
          "type": "address"
        }
      ],
      "stateMutability": "view",
      "type": "function",
      "constant": true
    },
    {
      "inputs": [
        {
          "internalType": "uint256",
          "name": "",
          "type": "uint256"
        }
      ],
      "name": "candidates",
      "outputs": [
        {
          "internalType": "uint256",
          "name": "id",
          "type": "uint256"
        },
        {
          "internalType": "string",
          "name": "name",
          "type": "string"
        },
        {
          "internalType": "string",
          "name": "description",
          "type": "string"
        },
        {
          "internalType": "uint256",
          "name": "voteCount",
          "type": "uint256"
        }
      ],
      "stateMutability": "view",
      "type": "function",
      "constant": true
    },
    {
      "inputs": [],
      "name": "candidatesCount",
      "outputs": [
        {
          "internalType": "uint256",
          "name": "",
          "type": "uint256"
        }
      ],
      "stateMutability": "view",
      "type": "function",
      "constant": true
    },
    {
      "inputs": [],
      "name": "electionDescription",
      "outputs": [
        {
          "internalType": "string",
          "name": "",
          "type": "string"
        }
      ],
      "stateMutability": "view",
      "type": "function",
      "constant": true
    },
    {
      "inputs": [],
      "name": "electionName",
      "outputs": [
        {
          "internalType": "string",
          "name": "",
          "type": "string"
        }
      ],
      "stateMutability": "view",
      "type": "function",
      "constant": true
    },
    {
      "inputs": [],
      "name": "electionState",
      "outputs": [
        {
          "internalType": "enum Election.ElectionState",
          "name": "",
          "type": "uint8"
        }
      ],
      "stateMutability": "view",
      "type": "function",
      "constant": true
    },
    {
      "inputs": [],
      "name": "endTime",
      "outputs": [
        {
          "internalType": "uint256",
          "name": "",
          "type": "uint256"
        }
      ],
      "stateMutability": "view",
      "type": "function",
      "constant": true
    },
    {
      "inputs": [],
      "name": "registeredVoterCount",
      "outputs": [
        {
          "internalType": "uint256",
          "name": "",
          "type": "uint256"
        }
      ],
      "stateMutability": "view",
      "type": "function",
      "constant": true
    },
    {
      "inputs": [],
      "name": "startTime",
      "outputs": [
        {
          "internalType": "uint256",
          "name": "",
          "type": "uint256"
        }
      ],
      "stateMutability": "view",
      "type": "function",
      "constant": true
    },
    {
      "inputs": [],
      "name": "totalVotes",
      "outputs": [
        {
          "internalType": "uint256",
          "name": "",
          "type": "uint256"
        }
      ],
      "stateMutability": "view",
      "type": "function",
      "constant": true
    },
    {
      "inputs": [
        {
          "internalType": "address",
          "name": "",
          "type": "address"
        }
      ],
      "name": "verifiers",
      "outputs": [
        {
          "internalType": "bool",
          "name": "",
          "type": "bool"
        }
      ],
      "stateMutability": "view",
      "type": "function",
      "constant": true
    },
    {
      "inputs": [
        {
          "internalType": "address",
          "name": "",
          "type": "address"
        }
      ],
      "name": "voters",
      "outputs": [
        {
          "internalType": "bool",
          "name": "isRegistered",
          "type": "bool"
        },
        {
          "internalType": "bool",
          "name": "hasVoted",
          "type": "bool"
        },
        {
          "internalType": "uint256",
          "name": "votedCandidateId",
          "type": "uint256"
        }
      ],
      "stateMutability": "view",
      "type": "function",
      "constant": true
    },
    {
      "inputs": [
        {
          "internalType": "string",
          "name": "_name",
          "type": "string"
        },
        {
          "internalType": "string",
          "name": "_description",
          "type": "string"
        }
      ],
      "name": "addCandidate",
      "outputs": [],
      "stateMutability": "nonpayable",
      "type": "function"
    },
    {
      "inputs": [
        {
          "internalType": "address",
          "name": "_verifier",
          "type": "address"
        }
      ],
      "name": "addVerifier",
      "outputs": [],
      "stateMutability": "nonpayable",
      "type": "function"
    },
    {
      "inputs": [
        {
          "internalType": "address",
          "name": "_verifier",
          "type": "address"
        }
      ],
      "name": "removeVerifier",
      "outputs": [],
      "stateMutability": "nonpayable",
      "type": "function"
    },
    {
      "inputs": [
        {
          "internalType": "address",
          "name": "_voter",
          "type": "address"
        }
      ],
      "name": "registerVoter",
      "outputs": [],
      "stateMutability": "nonpayable",
      "type": "function"
    },
    {
      "inputs": [
        {
          "internalType": "uint256",
          "name": "_durationInMinutes",
          "type": "uint256"
        }
      ],
      "name": "startElection",
      "outputs": [],
      "stateMutability": "nonpayable",
      "type": "function"
    },
    {
      "inputs": [],
      "name": "endElection",
      "outputs": [],
      "stateMutability": "nonpayable",
      "type": "function"
    },
    {
      "inputs": [
        {
          "internalType": "uint256",
          "name": "_candidateId",
          "type": "uint256"
        }
      ],
      "name": "vote",
      "outputs": [],
      "stateMutability": "nonpayable",
      "type": "function"
    },
    {
      "inputs": [],
      "name": "tallyResults",
      "outputs": [],
      "stateMutability": "nonpayable",
      "type": "function"
    },
    {
      "inputs": [],
      "name": "getWinner",
      "outputs": [
        {
          "internalType": "uint256",
          "name": "",
          "type": "uint256"
        }
      ],
      "stateMutability": "view",
      "type": "function",
      "constant": true
    },
    {
      "inputs": [
        {
          "internalType": "uint256",
          "name": "_candidateId",
          "type": "uint256"
        }
      ],
      "name": "getCandidateDetails",
      "outputs": [
        {
          "internalType": "uint256",
          "name": "",
          "type": "uint256"
        },
        {
          "internalType": "string",
          "name": "",
          "type": "string"
        },
        {
          "internalType": "string",
          "name": "",
          "type": "string"
        },
        {
          "internalType": "uint256",
          "name": "",
          "type": "uint256"
        }
      ],
      "stateMutability": "view",
      "type": "function",
      "constant": true
    },
    {
      "inputs": [
        {
          "internalType": "address",
          "name": "_voter",
          "type": "address"
        }
      ],
      "name": "hasVoted",
      "outputs": [
        {
          "internalType": "bool",
          "name": "",
          "type": "bool"
        }
      ],
      "stateMutability": "view",
      "type": "function",
      "constant": true
    }
  ],
  "bytecode": "0x60806040523480156200001157600080fd5b506040516200183d3803806200183d8339810160408190526200003491620003ad565b8151620000499060009060208501906200027e565b5080516200005f9060019060208401906200027e565b50600280546001600160a01b03191633178082556001919060ff60a01b1916600160a01b830217905550620000df604051806040016040528060098152602001684a6f686e205769636b60b81b8152506040518060400160405280600b81526020016a20b1ba34b7b71039ba30b960a91b815250620001ac60201b60201c565b620001366040518060400160405280600a815260200169213937bbb732bc90253960b11b8152506040518060400160405280600b81526020016a546563682067656e69757360a81b815250620001ac60201b60201c565b620001a46040518060400160405280600f81526020016e48656c656e612057696c6c69616d7360881b8152506040518060400160405280601381526020017f506f6c69746963616c2063616e64696461746500000000000000000000000000815250620001ac60201b60201c565b5050620004f7565b60088054906000620001be83620004b9565b9091555050604080516080810182526008548082526020808301868152838501869052600060608501819052928352600582529390912082518155925180519293926200021292600185019201906200027e565b5060408201518051620002309160028401916020909101906200027e565b50606082015181600301559050506008547fe83b2a43e7e82d975c8a0a6d2f045153c869e111136a34d1889ab7b598e396a38360405162000272919062000414565b60405180910390a25050565b8280546200028c906200047c565b90600052602060002090601f016020900481019282620002b05760008555620002fb565b82601f10620002cb57805160ff1916838001178555620002fb565b82800160010185558215620002fb579182015b82811115620002fb578251825591602001919060010190620002de565b50620003099291506200030d565b5090565b5b808211156200030957600081556001016200030e565b600082601f83011262000335578081fd5b81516001600160401b0380821115620003525762000352620004e1565b604051601f8301601f191681016020018281118282101715620003795762000379620004e1565b60405282815284830160200186101562000391578384fd5b620003a483602083016020880162000449565b95945050505050565b60008060408385031215620003c0578182fd5b82516001600160401b0380821115620003d7578384fd5b620003e58683870162000324565b93506020850151915080821115620003fb578283fd5b506200040a8582860162000324565b9150509250929050565b60006020825282518060208401526200043581604085016020870162000449565b601f01601f19169190910160400192915050565b60005b83811015620004665781810151838201526020016200044c565b8381111562000476576000848401525b50505050565b6002810460018216806200049157607f821691505b60208210811415620004b357634e487b7160e01b600052602260045260246000fd5b50919050565b6000600019821415620004da57634e487b7160e01b81526011600452602481fd5b5060010190565b634e487b7160e01b600052604160045260246000fd5b61133680620005076000396000f3fe608060405234801561001057600080fd5b506004361061014d5760003560e01c806349a2b603116100c35780638e7ea5b21161007c5780638e7ea5b2146102815780639000b3d614610289578063a3ec138d1461029c578063bd31a75e146102be578063ca2dfd0a146102c6578063f851a440146102d95761014d565b806349a2b6031461022e57806359f78468146102435780636c8244871461024b5780636d32dc4b1461025e57806378e979251461027157806385e8e7a7146102795761014d565b806326541b561161011557806326541b56146101c257806327f9fd50146101d55780632d35a8a2146101f85780633197cbb6146102005780633477ee2e1461020857806338db6dd31461021b5761014d565b80630121b93f14610152578063077ed31c1461016757806309eef43e146101855780630d15fd77146101a55780632280043d146101ad575b600080fd5b610165610160366004610f1f565b6102ee565b005b61016f6103e2565b60405161017c9190611201565b60405180910390f35b610198610193366004610e90565b6103e8565b60405161017c9190610f96565b61016f61040b565b6101b5610411565b60405161017c9190610fb9565b6101656101d0366004610ebe565b610421565b6101e86101e3366004610f1f565b6104eb565b60405161017c949392919061120a565b61016f61069a565b61016f6106a0565b6101e8610216366004610f1f565b6106a6565b610165610229366004610e90565b6107df565b6102366108c9565b60405161017c9190610fe1565b610165610957565b610198610259366004610e90565b610a19565b61016561026c366004610f1f565b610a2e565b61016f610b35565b610236610b3b565b61016f610b48565b610165610297366004610e90565b610bee565b6102af6102aa366004610e90565b610c3c565b60405161017c93929190610fa1565b610165610c62565b6101656102d4366004610e90565b610d1c565b6102e1610d67565b60405161017c9190610f82565b33600090815260066020526040902054610100900460ff161561032c5760405162461bcd60e51b81526004016103239061109c565b60405180910390fd5b60008111801561033e57506008548111155b61035a5760405162461bcd60e51b815260040161032390610ff4565b336000908152600660209081526040808320805461ff00191661010017815560010184905583835260059091528120600301805491610398836112b9565b9091555050600a80549060006103ad836112b9565b9091555050604051819033907fa36cc2bebb74db33e9f88110a07ef56e1b31b24b4c4f51b54b1664266e29f45b90600090a350565b60095481565b6001600160a01b0316600090815260066020526040902054610100900460ff1690565b600a5481565b600254600160a01b900460ff1681565b60088054906000610431836112b9565b9091555050604080516080810182526008548082526020808301868152838501869052600060608501819052928352600582529390912082518155925180519293926104839260018501920190610d76565b506040820151805161049f916002840191602090910190610d76565b50606082015181600301559050506008547fe83b2a43e7e82d975c8a0a6d2f045153c869e111136a34d1889ab7b598e396a3836040516104df9190610fe1565b60405180910390a25050565b60006060806000808511801561050357506008548511155b61051f5760405162461bcd60e51b81526004016103239061118e565b600060056000878152602001908152602001600020604051806080016040529081600082015481526020016001820180546105599061127e565b80601f01602080910402602001604051908101604052809291908181526020018280546105859061127e565b80156105d25780601f106105a7576101008083540402835291602001916105d2565b820191906000526020600020905b8154815290600101906020018083116105b557829003601f168201915b505050505081526020016002820180546105eb9061127e565b80601f01602080910402602001604051908101604052809291908181526020018280546106179061127e565b80156106645780601f1061063957610100808354040283529160200191610664565b820191906000526020600020905b81548152906001019060200180831161064757829003601f168201915b50505091835250506003919091015460209182015281519082015160408301516060909301519199909850919650945092505050565b60085481565b60045481565b600560205260009081526040902080546001820180549192916106c89061127e565b80601f01602080910402602001604051908101604052809291908181526020018280546106f49061127e565b80156107415780601f1061071657610100808354040283529160200191610741565b820191906000526020600020905b81548152906001019060200180831161072457829003601f168201915b5050505050908060020180546107569061127e565b80601f01602080910402602001604051908101604052809291908181526020018280546107829061127e565b80156107cf5780601f106107a4576101008083540402835291602001916107cf565b820191906000526020600020905b8154815290600101906020018083116107b257829003601f168201915b5050505050908060030154905084565b3360009081526007602052604090205460ff168061080757506002546001600160a01b031633145b6108235760405162461bcd60e51b815260040161032390611056565b6001600160a01b03811660009081526006602052604090205460ff161561085c5760405162461bcd60e51b81526004016103239061101f565b6001600160a01b0381166000908152600660205260408120805460ff19166001179055600980549161088d836112b9565b90915550506040516001600160a01b038216907fb6be2187d059cc2a55fe29e0e503b566e1e0f8c8780096e185429350acffd3dd90600090a250565b600180546108d69061127e565b80601f01602080910402602001604051908101604052809291908181526020018280546109029061127e565b801561094f5780601f106109245761010080835404028352916020019161094f565b820191906000526020600020905b81548152906001019060200180831161093257829003601f168201915b505050505081565b6002546001600160a01b031633146109815760405162461bcd60e51b8152600401610323906110d3565b600180600254600160a01b900460ff1660038111156109b057634e487b7160e01b600052602160045260246000fd5b146109cd5760405162461bcd60e51b8152600401610323906111bc565b6002805460ff60a01b1916600160a11b1781556040517f82aa0cc22cbb103bd5f28a40c65b9e63f2df333bbb70c6c9128eb83d7cb1041d91610a0e91610fb9565b60405180910390a150565b60076020526000908152604090205460ff1681565b6002546001600160a01b03163314610a585760405162461bcd60e51b8152600401610323906110d3565b600080600254600160a01b900460ff166003811115610a8757634e487b7160e01b600052602160045260246000fd5b14610aa45760405162461bcd60e51b8152600401610323906111bc565b600060085411610ac65760405162461bcd60e51b815260040161032390611115565b42600355610ad582603c61125f565b600354610ae29190611247565b6004556002805460ff60a01b1916600160a01b1790556040517f82aa0cc22cbb103bd5f28a40c65b9e63f2df333bbb70c6c9128eb83d7cb1041d90610b2990600190610fb9565b60405180910390a15050565b60035481565b600080546108d69061127e565b60006003600254600160a01b900460ff166003811115610b7857634e487b7160e01b600052602160045260246000fd5b14610b955760405162461bcd60e51b815260040161032390611157565b60008060015b6008548111610be757600081815260056020526040902060030154831015610bd55760008181526005602052604090206003015492509050805b80610bdf816112b9565b915050610b9b565b5091505090565b6002546001600160a01b03163314610c185760405162461bcd60e51b8152600401610323906110d3565b6001600160a01b03166000908152600760205260409020805460ff19166001179055565b6006602052600090815260409020805460019091015460ff808316926101009004169083565b6002546001600160a01b03163314610c8c5760405162461bcd60e51b8152600401610323906110d3565b600280600254600160a01b900460ff166003811115610cbb57634e487b7160e01b600052602160045260246000fd5b14610cd85760405162461bcd60e51b8152600401610323906111bc565b6002805460ff60a01b1916600360a01b1790556040517f82aa0cc22cbb103bd5f28a40c65b9e63f2df333bbb70c6c9128eb83d7cb1041d90610a0e90600390610fb9565b6002546001600160a01b03163314610d465760405162461bcd60e51b8152600401610323906110d3565b6001600160a01b03166000908152600760205260409020805460ff19169055565b6002546001600160a01b031681565b828054610d829061127e565b90600052602060002090601f016020900481019282610da45760008555610dea565b82601f10610dbd57805160ff1916838001178555610dea565b82800160010185558215610dea579182015b82811115610dea578251825591602001919060010190610dcf565b50610df6929150610dfa565b5090565b5b80821115610df65760008155600101610dfb565b600082601f830112610e1f578081fd5b813567ffffffffffffffff80821115610e3a57610e3a6112ea565b604051601f8301601f191681016020018281118282101715610e5e57610e5e6112ea565b604052828152848301602001861015610e75578384fd5b82602086016020830137918201602001929092529392505050565b600060208284031215610ea1578081fd5b81356001600160a01b0381168114610eb7578182fd5b9392505050565b60008060408385031215610ed0578081fd5b823567ffffffffffffffff80821115610ee7578283fd5b610ef386838701610e0f565b93506020850135915080821115610f08578283fd5b50610f1585828601610e0f565b9150509250929050565b600060208284031215610f30578081fd5b5035919050565b60008151808452815b81811015610f5c57602081850181015186830182015201610f40565b81811115610f6d5782602083870101525b50601f01601f19169290920160200192915050565b6001600160a01b0391909116815260200190565b901515815260200190565b92151583529015156020830152604082015260600190565b6020810160048310610fdb57634e487b7160e01b600052602160045260246000fd5b91905290565b600060208252610eb76020830184610f37565b602080825260119082015270496e76616c69642063616e64696461746560781b604082015260600190565b60208082526018908201527f566f74657220616c726561647920726567697374657265640000000000000000604082015260600190565b60208082526026908201527f4f6e6c79207665726966696572732063616e20706572666f726d20746869732060408201526530b1ba34b7b760d11b606082015260800190565b60208082526017908201527f566f7465722068617320616c726561647920766f746564000000000000000000604082015260600190565b60208082526022908201527f4f6e6c792061646d696e2063616e20706572666f726d2074686973206163746960408201526137b760f11b606082015260800190565b60208082526022908201527f4e6f2063616e646964617465732068617665206265656e207265676973746572604082015261195960f21b606082015260800190565b60208082526017908201527f526573756c7473206e6f742074616c6c69656420796574000000000000000000604082015260600190565b602080825260149082015273125b9d985b1a590818d85b991a59185d1948125160621b604082015260600190565b60208082526025908201527f456c656374696f6e206973206e6f7420696e2074686520726571756972656420604082015264737461746560d81b606082015260800190565b90815260200190565b6000858252608060208301526112236080830186610f37565b82810360408401526112358186610f37565b91505082606083015295945050505050565b6000821982111561125a5761125a6112d4565b500190565b6000816000190483118215151615611279576112796112d4565b500290565b60028104600182168061129257607f821691505b602082108114156112b357634e487b7160e01b600052602260045260246000fd5b50919050565b60006000198214156112cd576112cd6112d4565b5060010190565b634e487b7160e01b600052601160045260246000fd5b634e487b7160e01b600052604160045260246000fdfea2646970667358221220b3311db52dae1154afbead5078130d5f6b31b90513ee567b2af6ced6ce60588864736f6c63430008000033",
  "immutableReferences": {},
  "source": "// SPDX-License-Identifier: MIT\npragma solidity ^0.8.0;\n\n/**\n * @title Election\n * @dev Manages an election with voter registration, candidate management, and secure voting\n */\ncontract Election {\n    // Candidate representation\n    struct Candidate {\n        uint256 id;\n        string name;\n        string description;\n        uint256 voteCount;\n    }\n\n    // Voter representation\n    struct Voter {\n        bool isRegistered;\n        bool hasVoted;\n        uint256 votedCandidateId;\n    }\n\n    // Election states\n    enum ElectionState { Setup, Active, Closed, Tallied }\n\n    // Election details\n    string public electionName;\n    string public electionDescription;\n    address public admin;\n    ElectionState public electionState;\n    uint256 public startTime;\n    uint256 public endTime;\n\n    // Data storage\n    mapping(uint256 => Candidate) public candidates;\n    mapping(address => Voter) public voters;\n    mapping(address => bool) public verifiers;\n    uint256 public candidatesCount;\n    uint256 public registeredVoterCount;\n    uint256 public totalVotes;\n\n    // Events\n    event CandidateAdded(uint256 indexed candidateId, string name);\n    event VoterRegistered(address indexed voter);\n    event VoteCast(address indexed voter, uint256 indexed candidateId);\n    event ElectionStateChanged(ElectionState newState);\n\n    // Modifiers\n    modifier onlyAdmin() {\n        require(msg.sender == admin, \"Only admin can perform this action\");\n        _;\n    }\n\n    modifier onlyVerifier() {\n        require(verifiers[msg.sender] || msg.sender == admin, \"Only verifiers can perform this action\");\n        _;\n    }\n\n    modifier inState(ElectionState _state) {\n        require(electionState == _state, \"Election is not in the required state\");\n        _;\n    }\n\n    /**\n     * @dev Initialize the election with a name and description\n     * @param _name Name of the election\n     * @param _description Description of the election\n     */\n    constructor(string memory _name, string memory _description) {\n        electionName = _name;\n        electionDescription = _description;\n        admin = msg.sender;\n        electionState = ElectionState.Active; // Set to Active by default for testing\n        \n        // Add default candidates for testing\n        addCandidate(\"John Wick\", \"Action star\");\n        addCandidate(\"Browney Jr\", \"Tech genius\");\n        addCandidate(\"Helena Williams\", \"Political candidate\");\n    }\n\n    /**\n     * @dev Add a new candidate to the election (admin only)\n     * @param _name Name of the candidate\n     * @param _description Description or platform of the candidate\n     */\n    function addCandidate(string memory _name, string memory _description) public {\n        // For testing purposes: removed the onlyAdmin and inState modifiers\n        candidatesCount++;\n        candidates[candidatesCount] = Candidate(candidatesCount, _name, _description, 0);\n        emit CandidateAdded(candidatesCount, _name);\n    }\n    \n    /**\n     * @dev Add a verifier who can register voters\n     * @param _verifier Address of the verifier\n     */\n    function addVerifier(address _verifier) public onlyAdmin {\n        verifiers[_verifier] = true;\n    }\n    \n    /**\n     * @dev Remove a verifier\n     * @param _verifier Address of the verifier to remove\n     */\n    function removeVerifier(address _verifier) public onlyAdmin {\n        verifiers[_verifier] = false;\n    }\n\n    /**\n     * @dev Register a voter for the election\n     * @param _voter Address of the voter to register\n     */\n    function registerVoter(address _voter) public onlyVerifier {\n        require(!voters[_voter].isRegistered, \"Voter already registered\");\n        voters[_voter].isRegistered = true;\n        registeredVoterCount++;\n        emit VoterRegistered(_voter);\n    }\n\n    /**\n     * @dev Start the election\n     * @param _durationInMinutes Duration of the election in minutes\n     */\n    function startElection(uint256 _durationInMinutes) public onlyAdmin inState(ElectionState.Setup) {\n        require(candidatesCount > 0, \"No candidates have been registered\");\n        startTime = block.timestamp;\n        endTime = startTime + (_durationInMinutes * 1 minutes);\n        electionState = ElectionState.Active;\n        emit ElectionStateChanged(ElectionState.Active);\n    }\n\n    /**\n     * @dev End the election manually before the time is up\n     */\n    function endElection() public onlyAdmin inState(ElectionState.Active) {\n        electionState = ElectionState.Closed;\n        emit ElectionStateChanged(ElectionState.Closed);\n    }\n\n    /**\n     * @dev Cast a vote for a candidate\n     * @param _candidateId ID of the candidate to vote for\n     */\n    function vote(uint256 _candidateId) public {\n        // For testing: removed registration check and state check\n        \n        // Check if voter has already voted\n        require(!voters[msg.sender].hasVoted, \"Voter has already voted\");\n\n        // Check if candidate ID is valid\n        require(_candidateId > 0 && _candidateId <= candidatesCount, \"Invalid candidate\");\n\n        // Record the vote\n        voters[msg.sender].hasVoted = true;\n        voters[msg.sender].votedCandidateId = _candidateId;\n        candidates[_candidateId].voteCount++;\n        totalVotes++;\n\n        emit VoteCast(msg.sender, _candidateId);\n    }\n\n    /**\n     * @dev Tally the election results\n     */\n    function tallyResults() public onlyAdmin inState(ElectionState.Closed) {\n        electionState = ElectionState.Tallied;\n        emit ElectionStateChanged(ElectionState.Tallied);\n    }\n\n    /**\n     * @dev Get the winning candidate's ID\n     * @return The ID of the winning candidate\n     */\n    function getWinner() public view returns (uint256) {\n        require(electionState == ElectionState.Tallied, \"Results not tallied yet\");\n        \n        uint256 winningVoteCount = 0;\n        uint256 winningCandidateId = 0;\n        \n        for (uint256 i = 1; i <= candidatesCount; i++) {\n            if (candidates[i].voteCount > winningVoteCount) {\n                winningVoteCount = candidates[i].voteCount;\n                winningCandidateId = i;\n            }\n        }\n        \n        return winningCandidateId;\n    }\n\n    /**\n     * @dev Get details of a candidate\n     * @param _candidateId ID of the candidate\n     * @return id, name, description, and vote count of the candidate\n     */\n    function getCandidateDetails(uint256 _candidateId) public view returns (uint256, string memory, string memory, uint256) {\n        require(_candidateId > 0 && _candidateId <= candidatesCount, \"Invalid candidate ID\");\n        Candidate memory candidate = candidates[_candidateId];\n        return (candidate.id, candidate.name, candidate.description, candidate.voteCount);\n    }\n    \n    /**\n     * @dev Check if a voter has voted\n     * @param _voter Address of the voter\n     * @return Whether the voter has voted\n     */\n    function hasVoted(address _voter) public view returns (bool) {\n        return voters[_voter].hasVoted;\n    }\n}\n",
  "sourcePath": "/Users/tayo/Downloads/Voting-Full_stack 5/contracts/Election.sol",
  "compiler": {
    "name": "solc",
    "version": "0.8.0+commit.c7dfd78e.Emscripten.clang"
  },
  "schemaVersion": "3.4.16",
  "updatedAt": "2025-05-13T14:36:02.770Z",
  "networkType": "ethereum",
  "devdoc": {
    "details": "Manages an election with voter registration, candidate management, and secure voting",
    "kind": "dev",
    "methods": {
      "addCandidate(string,string)": {
        "details": "Add a new candidate to the election (admin only)",
        "params": {
          "_description": "Description or platform of the candidate",
          "_name": "Name of the candidate"
        }
      },
      "addVerifier(address)": {
        "details": "Add a verifier who can register voters",
        "params": {
          "_verifier": "Address of the verifier"
        }
      },
      "constructor": {
        "details": "Initialize the election with a name and description",
        "params": {
          "_description": "Description of the election",
          "_name": "Name of the election"
        }
      },
      "endElection()": {
        "details": "End the election manually before the time is up"
      },
      "getCandidateDetails(uint256)": {
        "details": "Get details of a candidate",
        "params": {
          "_candidateId": "ID of the candidate"
        },
        "returns": {
          "_0": "id, name, description, and vote count of the candidate"
        }
      },
      "getWinner()": {
        "details": "Get the winning candidate's ID",
        "returns": {
          "_0": "The ID of the winning candidate"
        }
      },
      "hasVoted(address)": {
        "details": "Check if a voter has voted",
        "params": {
          "_voter": "Address of the voter"
        },
        "returns": {
          "_0": "Whether the voter has voted"
        }
      },
      "registerVoter(address)": {
        "details": "Register a voter for the election",
        "params": {
          "_voter": "Address of the voter to register"
        }
      },
      "removeVerifier(address)": {
        "details": "Remove a verifier",
        "params": {
          "_verifier": "Address of the verifier to remove"
        }
      },
      "startElection(uint256)": {
        "details": "Start the election",
        "params": {
          "_durationInMinutes": "Duration of the election in minutes"
        }
      },
      "tallyResults()": {
        "details": "Tally the election results"
      },
      "vote(uint256)": {
        "details": "Cast a vote for a candidate",
        "params": {
          "_candidateId": "ID of the candidate to vote for"
        }
      }
    },
    "title": "Election",
    "version": 1
  },
  "userdoc": {
    "kind": "user",
    "methods": {},
    "version": 1
  }
}