{
  "contractName": "ElectionFactory",
  "abi": [
    {
      "inputs": [
        {
          "internalType": "address",
          "name": "_voterRegistry",
          "type": "address"
        }
      ],
      "stateMutability": "nonpayable",
      "type": "constructor"
    },
    {
      "anonymous": false,
      "inputs": [
        {
          "indexed": true,
          "internalType": "address",
          "name": "electionAddress",
          "type": "address"
        },
        {
          "indexed": false,
          "internalType": "string",
          "name": "name",
          "type": "string"
        },
        {
          "indexed": false,
          "internalType": "address",
          "name": "owner",
          "type": "address"
        }
      ],
      "name": "ElectionCreated",
      "type": "event"
    },
    {
      "anonymous": false,
      "inputs": [
        {
          "indexed": true,
          "internalType": "address",
          "name": "electionAddress",
          "type": "address"
        }
      ],
      "name": "ElectionDeactivated",
      "type": "event"
    },
    {
      "anonymous": false,
      "inputs": [
        {
          "indexed": true,
          "internalType": "address",
          "name": "manager",
          "type": "address"
        }
      ],
      "name": "ManagerAdded",
      "type": "event"
    },
    {
      "anonymous": false,
      "inputs": [
        {
          "indexed": true,
          "internalType": "address",
          "name": "manager",
          "type": "address"
        }
      ],
      "name": "ManagerRemoved",
      "type": "event"
    },
    {
      "inputs": [],
      "name": "admin",
      "outputs": [
        {
          "internalType": "address",
          "name": "",
          "type": "address"
        }
      ],
      "stateMutability": "view",
      "type": "function",
      "constant": true
    },
    {
      "inputs": [
        {
          "internalType": "uint256",
          "name": "",
          "type": "uint256"
        }
      ],
      "name": "elections",
      "outputs": [
        {
          "internalType": "address",
          "name": "electionAddress",
          "type": "address"
        },
        {
          "internalType": "string",
          "name": "name",
          "type": "string"
        },
        {
          "internalType": "string",
          "name": "description",
          "type": "string"
        },
        {
          "internalType": "address",
          "name": "owner",
          "type": "address"
        },
        {
          "internalType": "uint256",
          "name": "creationTime",
          "type": "uint256"
        },
        {
          "internalType": "bool",
          "name": "isActive",
          "type": "bool"
        }
      ],
      "stateMutability": "view",
      "type": "function",
      "constant": true
    },
    {
      "inputs": [
        {
          "internalType": "address",
          "name": "",
          "type": "address"
        }
      ],
      "name": "managers",
      "outputs": [
        {
          "internalType": "bool",
          "name": "",
          "type": "bool"
        }
      ],
      "stateMutability": "view",
      "type": "function",
      "constant": true
    },
    {
      "inputs": [
        {
          "internalType": "address",
          "name": "",
          "type": "address"
        }
      ],
      "name": "registeredElections",
      "outputs": [
        {
          "internalType": "bool",
          "name": "",
          "type": "bool"
        }
      ],
      "stateMutability": "view",
      "type": "function",
      "constant": true
    },
    {
      "inputs": [],
      "name": "voterRegistry",
      "outputs": [
        {
          "internalType": "contract VoterRegistry",
          "name": "",
          "type": "address"
        }
      ],
      "stateMutability": "view",
      "type": "function",
      "constant": true
    },
    {
      "inputs": [
        {
          "internalType": "address",
          "name": "_manager",
          "type": "address"
        }
      ],
      "name": "addManager",
      "outputs": [],
      "stateMutability": "nonpayable",
      "type": "function"
    },
    {
      "inputs": [
        {
          "internalType": "address",
          "name": "_manager",
          "type": "address"
        }
      ],
      "name": "removeManager",
      "outputs": [],
      "stateMutability": "nonpayable",
      "type": "function"
    },
    {
      "inputs": [
        {
          "internalType": "string",
          "name": "_name",
          "type": "string"
        },
        {
          "internalType": "string",
          "name": "_description",
          "type": "string"
        }
      ],
      "name": "createElection",
      "outputs": [
        {
          "internalType": "address",
          "name": "",
          "type": "address"
        }
      ],
      "stateMutability": "nonpayable",
      "type": "function"
    },
    {
      "inputs": [
        {
          "internalType": "address",
          "name": "_electionAddress",
          "type": "address"
        }
      ],
      "name": "deactivateElection",
      "outputs": [],
      "stateMutability": "nonpayable",
      "type": "function"
    },
    {
      "inputs": [],
      "name": "getElectionCount",
      "outputs": [
        {
          "internalType": "uint256",
          "name": "",
          "type": "uint256"
        }
      ],
      "stateMutability": "view",
      "type": "function",
      "constant": true
    },
    {
      "inputs": [
        {
          "internalType": "address",
          "name": "_electionAddress",
          "type": "address"
        }
      ],
      "name": "isRegisteredElection",
      "outputs": [
        {
          "internalType": "bool",
          "name": "",
          "type": "bool"
        }
      ],
      "stateMutability": "view",
      "type": "function",
      "constant": true
    },
    {
      "inputs": [
        {
          "internalType": "uint256",
          "name": "_index",
          "type": "uint256"
        }
      ],
      "name": "getElectionInfo",
      "outputs": [
        {
          "internalType": "address",
          "name": "",
          "type": "address"
        },
        {
          "internalType": "string",
          "name": "",
          "type": "string"
        },
        {
          "internalType": "string",
          "name": "",
          "type": "string"
        },
        {
          "internalType": "address",
          "name": "",
          "type": "address"
        },
        {
          "internalType": "uint256",
          "name": "",
          "type": "uint256"
        },
        {
          "internalType": "bool",
          "name": "",
          "type": "bool"
        }
      ],
      "stateMutability": "view",
      "type": "function",
      "constant": true
    },
    {
      "inputs": [],
      "name": "getActiveElections",
      "outputs": [
        {
          "internalType": "address[]",
          "name": "",
          "type": "address[]"
        }
      ],
      "stateMutability": "view",
      "type": "function",
      "constant": true
    }
  ],
  "bytecode": "0x608060405234801561001057600080fd5b50604051612ac7380380612ac783398101604081905261002f9161007c565b60008054336001600160a01b0319918216811783558252600160208190526040909220805460ff1916909217909155600480549091166001600160a01b03929092169190911790556100aa565b60006020828403121561008d578081fd5b81516001600160a01b03811681146100a3578182fd5b9392505050565b612a0e806100b96000396000f3fe60806040523480156200001157600080fd5b5060043610620000e25760003560e01c8063b93cd67b1162000099578063ce99b5df116200006f578063ce99b5df14620001ea578063f851a4401462000201578063fd696904146200020b578063fdff9b4d146200022257620000e2565b8063b93cd67b14620001a3578063bd27eca014620001ba578063be60040e14620001e057620000e2565b80631f6efcf214620000e7578063213785a014620001165780632d06177a146200012f5780635e6fef0114620001485780638a3b63b01462000173578063ac18de43146200018c575b600080fd5b620000fe620000f836600462000dd4565b62000239565b6040516200010d919062000f90565b60405180910390f35b6200012062000257565b6040516200010d919062001117565b620001466200014036600462000dd4565b6200025d565b005b6200015f6200015936600462000e6c565b6200030b565b6040516200010d9695949392919062000ee7565b6200017d6200048d565b6040516200010d919062000f41565b620001466200019d36600462000dd4565b62000650565b620000fe620001b436600462000dd4565b620006c6565b620001d1620001cb36600462000e04565b620006db565b6040516200010d919062000ed3565b620001d1620008ea565b6200015f620001fb36600462000e6c565b620008f9565b620001d162000b17565b620001466200021c36600462000dd4565b62000b26565b620000fe6200023336600462000dd4565b62000c82565b6001600160a01b031660009081526003602052604090205460ff1690565b60025490565b6000546001600160a01b03163314620002935760405162461bcd60e51b81526004016200028a90620010d5565b60405180910390fd5b6001600160a01b038116620002bc5760405162461bcd60e51b81526004016200028a9062000ff9565b6001600160a01b0381166000818152600160208190526040808320805460ff1916909217909155517f3b4a40cccf2058c593542587329dd385be4f0b588db5471fbd9598e56dd7093a9190a250565b600281815481106200031c57600080fd5b6000918252602090912060069091020180546001820180546001600160a01b039092169350906200034d9062001120565b80601f01602080910402602001604051908101604052809291908181526020018280546200037b9062001120565b8015620003cc5780601f10620003a057610100808354040283529160200191620003cc565b820191906000526020600020905b815481529060010190602001808311620003ae57829003601f168201915b505050505090806002018054620003e39062001120565b80601f0160208091040260200160405190810160405280929190818152602001828054620004119062001120565b8015620004625780601f10620004365761010080835404028352916020019162000462565b820191906000526020600020905b8154815290600101906020018083116200044457829003601f168201915b505050506003830154600484015460059094015492936001600160a01b039091169290915060ff1686565b60606000805b600254811015620005025760028181548110620004c057634e487b7160e01b600052603260045260246000fd5b600091825260209091206005600690920201015460ff1615620004ed5781620004e9816200115d565b9250505b80620004f9816200115d565b91505062000493565b5060008167ffffffffffffffff8111156200052d57634e487b7160e01b600052604160045260246000fd5b60405190808252806020026020018201604052801562000557578160200160208202803683370190505b5090506000805b6002548110156200064757600281815481106200058b57634e487b7160e01b600052603260045260246000fd5b600091825260209091206005600690920201015460ff1615620006325760028181548110620005ca57634e487b7160e01b600052603260045260246000fd5b600091825260209091206006909102015483516001600160a01b03909116908490849081106200060a57634e487b7160e01b600052603260045260246000fd5b6001600160a01b0390921660209283029190910190910152816200062e816200115d565b9250505b806200063e816200115d565b9150506200055e565b50909250505090565b6000546001600160a01b031633146200067d5760405162461bcd60e51b81526004016200028a90620010d5565b6001600160a01b038116600081815260016020526040808220805460ff19169055517fef69f7d97228658c92417be1b16b19058315de71fecb435d07b7d23728b6bd319190a250565b60036020526000908152604090205460ff1681565b3360009081526001602052604081205460ff16806200070457506000546001600160a01b031633145b620007235760405162461bcd60e51b81526004016200028a9062001059565b60008383604051620007359062000c97565b6200074292919062000fc7565b604051809103906000f0801580156200075f573d6000803e3d6000fd5b506040805160c0810182526001600160a01b0383811682526020808301898152938301889052336060840152426080840152600160a0840181905260028054918201815560005283517f405787fa12a823e0f2b7631cc41b3ba8828b3321ca811111fa75cd3aa3bb5ace600690920291820180546001600160a01b031916919094161783559351805195965092948594929362000821937f405787fa12a823e0f2b7631cc41b3ba8828b3321ca811111fa75cd3aa3bb5acf0192019062000ca5565b50604082015180516200083f91600284019160209091019062000ca5565b506060820151600380830180546001600160a01b039384166001600160a01b03199091161790556080840151600484015560a0909301516005909201805492151560ff1993841617905584166000818152602093909352604092839020805490921660011790915590517f5daba0299dcf7387af0c6f4232e0fbd9b5bc965b67614eea46655c625ad6029c90620008da908890339062000f9b565b60405180910390a2509392505050565b6004546001600160a01b031681565b6000606080600080600060028054905087106200092a5760405162461bcd60e51b81526004016200028a9062001022565b6000600288815481106200094e57634e487b7160e01b600052603260045260246000fd5b60009182526020918290206040805160c0810190915260069092020180546001600160a01b031682526001810180549293919291840191620009909062001120565b80601f0160208091040260200160405190810160405280929190818152602001828054620009be9062001120565b801562000a0f5780601f10620009e35761010080835404028352916020019162000a0f565b820191906000526020600020905b815481529060010190602001808311620009f157829003601f168201915b5050505050815260200160028201805462000a2a9062001120565b80601f016020809104026020016040519081016040528092919081815260200182805462000a589062001120565b801562000aa95780601f1062000a7d5761010080835404028352916020019162000aa9565b820191906000526020600020905b81548152906001019060200180831162000a8b57829003601f168201915b505050918352505060038201546001600160a01b0316602080830191909152600483015460408084019190915260059093015460ff1615156060928301528351908401519284015191840151608085015160a090950151919d939c50919a5090985091965090945092505050565b6000546001600160a01b031681565b6000546001600160a01b0316331462000b535760405162461bcd60e51b81526004016200028a90620010d5565b6001600160a01b03811660009081526003602052604090205460ff1662000b8e5760405162461bcd60e51b81526004016200028a906200109e565b60005b60025481101562000c4a57816001600160a01b03166002828154811062000bc857634e487b7160e01b600052603260045260246000fd5b60009182526020909120600690910201546001600160a01b0316141562000c355760006002828154811062000c0d57634e487b7160e01b600052603260045260246000fd5b60009182526020909120600690910201600501805460ff191691151591909117905562000c4a565b8062000c41816200115d565b91505062000b91565b506040516001600160a01b038216907f219e952350265998078e15332faa18331d9d22713692c9ffed632812c8f8c7e490600090a250565b60016020526000908152604090205460ff1681565b61183d806200119c83390190565b82805462000cb39062001120565b90600052602060002090601f01602090048101928262000cd7576000855562000d22565b82601f1062000cf257805160ff191683800117855562000d22565b8280016001018555821562000d22579182015b8281111562000d2257825182559160200191906001019062000d05565b5062000d3092915062000d34565b5090565b5b8082111562000d30576000815560010162000d35565b600082601f83011262000d5c578081fd5b813567ffffffffffffffff8082111562000d7a5762000d7a62001185565b604051601f8301601f19168101602001828111828210171562000da15762000da162001185565b60405282815284830160200186101562000db9578384fd5b82602086016020830137918201602001929092529392505050565b60006020828403121562000de6578081fd5b81356001600160a01b038116811462000dfd578182fd5b9392505050565b6000806040838503121562000e17578081fd5b823567ffffffffffffffff8082111562000e2f578283fd5b62000e3d8683870162000d4b565b9350602085013591508082111562000e53578283fd5b5062000e628582860162000d4b565b9150509250929050565b60006020828403121562000e7e578081fd5b5035919050565b60008151808452815b8181101562000eac5760208185018101518683018201520162000e8e565b8181111562000ebe5782602083870101525b50601f01601f19169290920160200192915050565b6001600160a01b0391909116815260200190565b600060018060a01b03808916835260c0602084015262000f0b60c084018962000e85565b838103604085015262000f1f818962000e85565b96909116606084015250506080810192909252151560a0909101529392505050565b6020808252825182820181905260009190848201906040850190845b8181101562000f845783516001600160a01b03168352928401929184019160010162000f5d565b50909695505050505050565b901515815260200190565b60006040825262000fb0604083018562000e85565b905060018060a01b03831660208301529392505050565b60006040825262000fdc604083018562000e85565b828103602084015262000ff0818562000e85565b95945050505050565b6020808252600f908201526e496e76616c6964206164647265737360881b604082015260600190565b6020808252601c908201527f456c656374696f6e20696e646578206f7574206f6620626f756e647300000000604082015260600190565b60208082526025908201527f4f6e6c79206d616e61676572732063616e20706572666f726d2074686973206160408201526431ba34b7b760d91b606082015260800190565b60208082526017908201527f456c656374696f6e206e6f742072656769737465726564000000000000000000604082015260600190565b60208082526022908201527f4f6e6c792061646d696e2063616e20706572666f726d2074686973206163746960408201526137b760f11b606082015260800190565b90815260200190565b6002810460018216806200113557607f821691505b602082108114156200115757634e487b7160e01b600052602260045260246000fd5b50919050565b60006000198214156200117e57634e487b7160e01b81526011600452602481fd5b5060010190565b634e487b7160e01b600052604160045260246000fdfe60806040523480156200001157600080fd5b506040516200183d3803806200183d8339810160408190526200003491620003ad565b8151620000499060009060208501906200027e565b5080516200005f9060019060208401906200027e565b50600280546001600160a01b03191633178082556001919060ff60a01b1916600160a01b830217905550620000df604051806040016040528060098152602001684a6f686e205769636b60b81b8152506040518060400160405280600b81526020016a20b1ba34b7b71039ba30b960a91b815250620001ac60201b60201c565b620001366040518060400160405280600a815260200169213937bbb732bc90253960b11b8152506040518060400160405280600b81526020016a546563682067656e69757360a81b815250620001ac60201b60201c565b620001a46040518060400160405280600f81526020016e48656c656e612057696c6c69616d7360881b8152506040518060400160405280601381526020017f506f6c69746963616c2063616e64696461746500000000000000000000000000815250620001ac60201b60201c565b5050620004f7565b60088054906000620001be83620004b9565b9091555050604080516080810182526008548082526020808301868152838501869052600060608501819052928352600582529390912082518155925180519293926200021292600185019201906200027e565b5060408201518051620002309160028401916020909101906200027e565b50606082015181600301559050506008547fe83b2a43e7e82d975c8a0a6d2f045153c869e111136a34d1889ab7b598e396a38360405162000272919062000414565b60405180910390a25050565b8280546200028c906200047c565b90600052602060002090601f016020900481019282620002b05760008555620002fb565b82601f10620002cb57805160ff1916838001178555620002fb565b82800160010185558215620002fb579182015b82811115620002fb578251825591602001919060010190620002de565b50620003099291506200030d565b5090565b5b808211156200030957600081556001016200030e565b600082601f83011262000335578081fd5b81516001600160401b0380821115620003525762000352620004e1565b604051601f8301601f191681016020018281118282101715620003795762000379620004e1565b60405282815284830160200186101562000391578384fd5b620003a483602083016020880162000449565b95945050505050565b60008060408385031215620003c0578182fd5b82516001600160401b0380821115620003d7578384fd5b620003e58683870162000324565b93506020850151915080821115620003fb578283fd5b506200040a8582860162000324565b9150509250929050565b60006020825282518060208401526200043581604085016020870162000449565b601f01601f19169190910160400192915050565b60005b83811015620004665781810151838201526020016200044c565b8381111562000476576000848401525b50505050565b6002810460018216806200049157607f821691505b60208210811415620004b357634e487b7160e01b600052602260045260246000fd5b50919050565b6000600019821415620004da57634e487b7160e01b81526011600452602481fd5b5060010190565b634e487b7160e01b600052604160045260246000fd5b61133680620005076000396000f3fe608060405234801561001057600080fd5b506004361061014d5760003560e01c806349a2b603116100c35780638e7ea5b21161007c5780638e7ea5b2146102815780639000b3d614610289578063a3ec138d1461029c578063bd31a75e146102be578063ca2dfd0a146102c6578063f851a440146102d95761014d565b806349a2b6031461022e57806359f78468146102435780636c8244871461024b5780636d32dc4b1461025e57806378e979251461027157806385e8e7a7146102795761014d565b806326541b561161011557806326541b56146101c257806327f9fd50146101d55780632d35a8a2146101f85780633197cbb6146102005780633477ee2e1461020857806338db6dd31461021b5761014d565b80630121b93f14610152578063077ed31c1461016757806309eef43e146101855780630d15fd77146101a55780632280043d146101ad575b600080fd5b610165610160366004610f1f565b6102ee565b005b61016f6103e2565b60405161017c9190611201565b60405180910390f35b610198610193366004610e90565b6103e8565b60405161017c9190610f96565b61016f61040b565b6101b5610411565b60405161017c9190610fb9565b6101656101d0366004610ebe565b610421565b6101e86101e3366004610f1f565b6104eb565b60405161017c949392919061120a565b61016f61069a565b61016f6106a0565b6101e8610216366004610f1f565b6106a6565b610165610229366004610e90565b6107df565b6102366108c9565b60405161017c9190610fe1565b610165610957565b610198610259366004610e90565b610a19565b61016561026c366004610f1f565b610a2e565b61016f610b35565b610236610b3b565b61016f610b48565b610165610297366004610e90565b610bee565b6102af6102aa366004610e90565b610c3c565b60405161017c93929190610fa1565b610165610c62565b6101656102d4366004610e90565b610d1c565b6102e1610d67565b60405161017c9190610f82565b33600090815260066020526040902054610100900460ff161561032c5760405162461bcd60e51b81526004016103239061109c565b60405180910390fd5b60008111801561033e57506008548111155b61035a5760405162461bcd60e51b815260040161032390610ff4565b336000908152600660209081526040808320805461ff00191661010017815560010184905583835260059091528120600301805491610398836112b9565b9091555050600a80549060006103ad836112b9565b9091555050604051819033907fa36cc2bebb74db33e9f88110a07ef56e1b31b24b4c4f51b54b1664266e29f45b90600090a350565b60095481565b6001600160a01b0316600090815260066020526040902054610100900460ff1690565b600a5481565b600254600160a01b900460ff1681565b60088054906000610431836112b9565b9091555050604080516080810182526008548082526020808301868152838501869052600060608501819052928352600582529390912082518155925180519293926104839260018501920190610d76565b506040820151805161049f916002840191602090910190610d76565b50606082015181600301559050506008547fe83b2a43e7e82d975c8a0a6d2f045153c869e111136a34d1889ab7b598e396a3836040516104df9190610fe1565b60405180910390a25050565b60006060806000808511801561050357506008548511155b61051f5760405162461bcd60e51b81526004016103239061118e565b600060056000878152602001908152602001600020604051806080016040529081600082015481526020016001820180546105599061127e565b80601f01602080910402602001604051908101604052809291908181526020018280546105859061127e565b80156105d25780601f106105a7576101008083540402835291602001916105d2565b820191906000526020600020905b8154815290600101906020018083116105b557829003601f168201915b505050505081526020016002820180546105eb9061127e565b80601f01602080910402602001604051908101604052809291908181526020018280546106179061127e565b80156106645780601f1061063957610100808354040283529160200191610664565b820191906000526020600020905b81548152906001019060200180831161064757829003601f168201915b50505091835250506003919091015460209182015281519082015160408301516060909301519199909850919650945092505050565b60085481565b60045481565b600560205260009081526040902080546001820180549192916106c89061127e565b80601f01602080910402602001604051908101604052809291908181526020018280546106f49061127e565b80156107415780601f1061071657610100808354040283529160200191610741565b820191906000526020600020905b81548152906001019060200180831161072457829003601f168201915b5050505050908060020180546107569061127e565b80601f01602080910402602001604051908101604052809291908181526020018280546107829061127e565b80156107cf5780601f106107a4576101008083540402835291602001916107cf565b820191906000526020600020905b8154815290600101906020018083116107b257829003601f168201915b5050505050908060030154905084565b3360009081526007602052604090205460ff168061080757506002546001600160a01b031633145b6108235760405162461bcd60e51b815260040161032390611056565b6001600160a01b03811660009081526006602052604090205460ff161561085c5760405162461bcd60e51b81526004016103239061101f565b6001600160a01b0381166000908152600660205260408120805460ff19166001179055600980549161088d836112b9565b90915550506040516001600160a01b038216907fb6be2187d059cc2a55fe29e0e503b566e1e0f8c8780096e185429350acffd3dd90600090a250565b600180546108d69061127e565b80601f01602080910402602001604051908101604052809291908181526020018280546109029061127e565b801561094f5780601f106109245761010080835404028352916020019161094f565b820191906000526020600020905b81548152906001019060200180831161093257829003601f168201915b505050505081565b6002546001600160a01b031633146109815760405162461bcd60e51b8152600401610323906110d3565b600180600254600160a01b900460ff1660038111156109b057634e487b7160e01b600052602160045260246000fd5b146109cd5760405162461bcd60e51b8152600401610323906111bc565b6002805460ff60a01b1916600160a11b1781556040517f82aa0cc22cbb103bd5f28a40c65b9e63f2df333bbb70c6c9128eb83d7cb1041d91610a0e91610fb9565b60405180910390a150565b60076020526000908152604090205460ff1681565b6002546001600160a01b03163314610a585760405162461bcd60e51b8152600401610323906110d3565b600080600254600160a01b900460ff166003811115610a8757634e487b7160e01b600052602160045260246000fd5b14610aa45760405162461bcd60e51b8152600401610323906111bc565b600060085411610ac65760405162461bcd60e51b815260040161032390611115565b42600355610ad582603c61125f565b600354610ae29190611247565b6004556002805460ff60a01b1916600160a01b1790556040517f82aa0cc22cbb103bd5f28a40c65b9e63f2df333bbb70c6c9128eb83d7cb1041d90610b2990600190610fb9565b60405180910390a15050565b60035481565b600080546108d69061127e565b60006003600254600160a01b900460ff166003811115610b7857634e487b7160e01b600052602160045260246000fd5b14610b955760405162461bcd60e51b815260040161032390611157565b60008060015b6008548111610be757600081815260056020526040902060030154831015610bd55760008181526005602052604090206003015492509050805b80610bdf816112b9565b915050610b9b565b5091505090565b6002546001600160a01b03163314610c185760405162461bcd60e51b8152600401610323906110d3565b6001600160a01b03166000908152600760205260409020805460ff19166001179055565b6006602052600090815260409020805460019091015460ff808316926101009004169083565b6002546001600160a01b03163314610c8c5760405162461bcd60e51b8152600401610323906110d3565b600280600254600160a01b900460ff166003811115610cbb57634e487b7160e01b600052602160045260246000fd5b14610cd85760405162461bcd60e51b8152600401610323906111bc565b6002805460ff60a01b1916600360a01b1790556040517f82aa0cc22cbb103bd5f28a40c65b9e63f2df333bbb70c6c9128eb83d7cb1041d90610a0e90600390610fb9565b6002546001600160a01b03163314610d465760405162461bcd60e51b8152600401610323906110d3565b6001600160a01b03166000908152600760205260409020805460ff19169055565b6002546001600160a01b031681565b828054610d829061127e565b90600052602060002090601f016020900481019282610da45760008555610dea565b82601f10610dbd57805160ff1916838001178555610dea565b82800160010185558215610dea579182015b82811115610dea578251825591602001919060010190610dcf565b50610df6929150610dfa565b5090565b5b80821115610df65760008155600101610dfb565b600082601f830112610e1f578081fd5b813567ffffffffffffffff80821115610e3a57610e3a6112ea565b604051601f8301601f191681016020018281118282101715610e5e57610e5e6112ea565b604052828152848301602001861015610e75578384fd5b82602086016020830137918201602001929092529392505050565b600060208284031215610ea1578081fd5b81356001600160a01b0381168114610eb7578182fd5b9392505050565b60008060408385031215610ed0578081fd5b823567ffffffffffffffff80821115610ee7578283fd5b610ef386838701610e0f565b93506020850135915080821115610f08578283fd5b50610f1585828601610e0f565b9150509250929050565b600060208284031215610f30578081fd5b5035919050565b60008151808452815b81811015610f5c57602081850181015186830182015201610f40565b81811115610f6d5782602083870101525b50601f01601f19169290920160200192915050565b6001600160a01b0391909116815260200190565b901515815260200190565b92151583529015156020830152604082015260600190565b6020810160048310610fdb57634e487b7160e01b600052602160045260246000fd5b91905290565b600060208252610eb76020830184610f37565b602080825260119082015270496e76616c69642063616e64696461746560781b604082015260600190565b60208082526018908201527f566f74657220616c726561647920726567697374657265640000000000000000604082015260600190565b60208082526026908201527f4f6e6c79207665726966696572732063616e20706572666f726d20746869732060408201526530b1ba34b7b760d11b606082015260800190565b60208082526017908201527f566f7465722068617320616c726561647920766f746564000000000000000000604082015260600190565b60208082526022908201527f4f6e6c792061646d696e2063616e20706572666f726d2074686973206163746960408201526137b760f11b606082015260800190565b60208082526022908201527f4e6f2063616e646964617465732068617665206265656e207265676973746572604082015261195960f21b606082015260800190565b60208082526017908201527f526573756c7473206e6f742074616c6c69656420796574000000000000000000604082015260600190565b602080825260149082015273125b9d985b1a590818d85b991a59185d1948125160621b604082015260600190565b60208082526025908201527f456c656374696f6e206973206e6f7420696e2074686520726571756972656420604082015264737461746560d81b606082015260800190565b90815260200190565b6000858252608060208301526112236080830186610f37565b82810360408401526112358186610f37565b91505082606083015295945050505050565b6000821982111561125a5761125a6112d4565b500190565b6000816000190483118215151615611279576112796112d4565b500290565b60028104600182168061129257607f821691505b602082108114156112b357634e487b7160e01b600052602260045260246000fd5b50919050565b60006000198214156112cd576112cd6112d4565b5060010190565b634e487b7160e01b600052601160045260246000fd5b634e487b7160e01b600052604160045260246000fdfea2646970667358221220b3311db52dae1154afbead5078130d5f6b31b90513ee567b2af6ced6ce60588864736f6c63430008000033a26469706673582212200673e2ef770ec83568d285c1baf545847f1212891eec28bf1ce43da59b4d1c0964736f6c63430008000033",
  "immutableReferences": {},
  "source": "// SPDX-License-Identifier: MIT\npragma solidity ^0.8.0;\n\nimport \"./Election.sol\";\nimport \"./VoterRegistry.sol\";\n\n/**\n * @title ElectionFactory\n * @dev Factory contract for creating and managing multiple elections\n */\ncontract ElectionFactory {\n    // Election information\n    struct ElectionInfo {\n        address electionAddress;\n        string name;\n        string description;\n        address owner;\n        uint256 creationTime;\n        bool isActive;\n    }\n    \n    // Admin management\n    address public admin;\n    mapping(address => bool) public managers;\n    \n    // Elections storage\n    ElectionInfo[] public elections;\n    mapping(address => bool) public registeredElections;\n    \n    // Voter registry\n    VoterRegistry public voterRegistry;\n    \n    // Events\n    event ElectionCreated(address indexed electionAddress, string name, address owner);\n    event ElectionDeactivated(address indexed electionAddress);\n    event ManagerAdded(address indexed manager);\n    event ManagerRemoved(address indexed manager);\n    \n    // Modifiers\n    modifier onlyAdmin() {\n        require(msg.sender == admin, \"Only admin can perform this action\");\n        _;\n    }\n    \n    modifier onlyManager() {\n        require(managers[msg.sender] || msg.sender == admin, \"Only managers can perform this action\");\n        _;\n    }\n    \n    /**\n     * @dev Initialize the factory with an admin and voter registry\n     * @param _voterRegistry Address of the deployed VoterRegistry contract\n     */\n    constructor(address _voterRegistry) {\n        admin = msg.sender;\n        managers[msg.sender] = true;\n        voterRegistry = VoterRegistry(_voterRegistry);\n    }\n    \n    /**\n     * @dev Add a manager who can create elections\n     * @param _manager Address of the manager to add\n     */\n    function addManager(address _manager) public onlyAdmin {\n        require(_manager != address(0), \"Invalid address\");\n        managers[_manager] = true;\n        emit ManagerAdded(_manager);\n    }\n    \n    /**\n     * @dev Remove a manager\n     * @param _manager Address of the manager to remove\n     */\n    function removeManager(address _manager) public onlyAdmin {\n        managers[_manager] = false;\n        emit ManagerRemoved(_manager);\n    }\n    \n    /**\n     * @dev Create a new election\n     * @param _name Name of the election\n     * @param _description Description of the election\n     * @return Address of the newly created election\n     */\n    function createElection(string memory _name, string memory _description) public onlyManager returns (address) {\n        Election newElection = new Election(_name, _description);\n        \n        ElectionInfo memory info = ElectionInfo({\n            electionAddress: address(newElection),\n            name: _name,\n            description: _description,\n            owner: msg.sender,\n            creationTime: block.timestamp,\n            isActive: true\n        });\n        \n        elections.push(info);\n        registeredElections[address(newElection)] = true;\n        \n        emit ElectionCreated(address(newElection), _name, msg.sender);\n        return address(newElection);\n    }\n    \n    /**\n     * @dev Deactivate an election\n     * @param _electionAddress Address of the election to deactivate\n     */\n    function deactivateElection(address _electionAddress) public onlyAdmin {\n        require(registeredElections[_electionAddress], \"Election not registered\");\n        \n        for (uint i = 0; i < elections.length; i++) {\n            if (elections[i].electionAddress == _electionAddress) {\n                elections[i].isActive = false;\n                break;\n            }\n        }\n        \n        emit ElectionDeactivated(_electionAddress);\n    }\n    \n    /**\n     * @dev Get the count of all elections created\n     * @return Number of elections\n     */\n    function getElectionCount() public view returns (uint256) {\n        return elections.length;\n    }\n    \n    /**\n     * @dev Check if an address is a registered election\n     * @param _electionAddress Address to check\n     * @return Whether the address is a registered election\n     */\n    function isRegisteredElection(address _electionAddress) public view returns (bool) {\n        return registeredElections[_electionAddress];\n    }\n    \n    /**\n     * @dev Get election information by index\n     * @param _index Index of the election\n     * @return Election address, name, description, owner, creation time, and active status\n     */\n    function getElectionInfo(uint256 _index) public view returns (address, string memory, string memory, address, uint256, bool) {\n        require(_index < elections.length, \"Election index out of bounds\");\n        \n        ElectionInfo memory info = elections[_index];\n        return (\n            info.electionAddress,\n            info.name,\n            info.description,\n            info.owner,\n            info.creationTime,\n            info.isActive\n        );\n    }\n    \n    /**\n     * @dev Get active elections\n     * @return Array of active election addresses\n     */\n    function getActiveElections() public view returns (address[] memory) {\n        uint256 activeCount = 0;\n        \n        // Count active elections\n        for (uint i = 0; i < elections.length; i++) {\n            if (elections[i].isActive) {\n                activeCount++;\n            }\n        }\n        \n        // Populate result array\n        address[] memory activeElections = new address[](activeCount);\n        uint256 currentIndex = 0;\n        \n        for (uint i = 0; i < elections.length; i++) {\n            if (elections[i].isActive) {\n                activeElections[currentIndex] = elections[i].electionAddress;\n                currentIndex++;\n            }\n        }\n        \n        return activeElections;\n    }\n}",
  "sourcePath": "/Users/tayo/Downloads/Voting-Full_stack 5/contracts/ElectionFactory.sol",
  "compiler": {
    "name": "solc",
    "version": "0.8.0+commit.c7dfd78e.Emscripten.clang"
  },
  "schemaVersion": "3.4.16",
  "updatedAt": "2025-05-13T14:36:02.773Z",
  "networkType": "ethereum",
  "devdoc": {
    "details": "Factory contract for creating and managing multiple elections",
    "kind": "dev",
    "methods": {
      "addManager(address)": {
        "details": "Add a manager who can create elections",
        "params": {
          "_manager": "Address of the manager to add"
        }
      },
      "constructor": {
        "details": "Initialize the factory with an admin and voter registry",
        "params": {
          "_voterRegistry": "Address of the deployed VoterRegistry contract"
        }
      },
      "createElection(string,string)": {
        "details": "Create a new election",
        "params": {
          "_description": "Description of the election",
          "_name": "Name of the election"
        },
        "returns": {
          "_0": "Address of the newly created election"
        }
      },
      "deactivateElection(address)": {
        "details": "Deactivate an election",
        "params": {
          "_electionAddress": "Address of the election to deactivate"
        }
      },
      "getActiveElections()": {
        "details": "Get active elections",
        "returns": {
          "_0": "Array of active election addresses"
        }
      },
      "getElectionCount()": {
        "details": "Get the count of all elections created",
        "returns": {
          "_0": "Number of elections"
        }
      },
      "getElectionInfo(uint256)": {
        "details": "Get election information by index",
        "params": {
          "_index": "Index of the election"
        },
        "returns": {
          "_0": "Election address, name, description, owner, creation time, and active status"
        }
      },
      "isRegisteredElection(address)": {
        "details": "Check if an address is a registered election",
        "params": {
          "_electionAddress": "Address to check"
        },
        "returns": {
          "_0": "Whether the address is a registered election"
        }
      },
      "removeManager(address)": {
        "details": "Remove a manager",
        "params": {
          "_manager": "Address of the manager to remove"
        }
      }
    },
    "title": "ElectionFactory",
    "version": 1
  },
  "userdoc": {
    "kind": "user",
    "methods": {},
    "version": 1
  }
}