{
  "contractName": "ElectionFactory",
  "abi": [
    {
      "inputs": [
        {
          "internalType": "address",
          "name": "_voterRegistry",
          "type": "address"
        }
      ],
      "stateMutability": "nonpayable",
      "type": "constructor"
    },
    {
      "anonymous": false,
      "inputs": [
        {
          "indexed": true,
          "internalType": "address",
          "name": "electionAddress",
          "type": "address"
        },
        {
          "indexed": false,
          "internalType": "string",
          "name": "name",
          "type": "string"
        },
        {
          "indexed": false,
          "internalType": "address",
          "name": "owner",
          "type": "address"
        }
      ],
      "name": "ElectionCreated",
      "type": "event"
    },
    {
      "anonymous": false,
      "inputs": [
        {
          "indexed": true,
          "internalType": "address",
          "name": "electionAddress",
          "type": "address"
        }
      ],
      "name": "ElectionDeactivated",
      "type": "event"
    },
    {
      "anonymous": false,
      "inputs": [
        {
          "indexed": true,
          "internalType": "address",
          "name": "manager",
          "type": "address"
        }
      ],
      "name": "ManagerAdded",
      "type": "event"
    },
    {
      "anonymous": false,
      "inputs": [
        {
          "indexed": true,
          "internalType": "address",
          "name": "manager",
          "type": "address"
        }
      ],
      "name": "ManagerRemoved",
      "type": "event"
    },
    {
      "inputs": [],
      "name": "admin",
      "outputs": [
        {
          "internalType": "address",
          "name": "",
          "type": "address"
        }
      ],
      "stateMutability": "view",
      "type": "function",
      "constant": true
    },
    {
      "inputs": [
        {
          "internalType": "uint256",
          "name": "",
          "type": "uint256"
        }
      ],
      "name": "elections",
      "outputs": [
        {
          "internalType": "address",
          "name": "electionAddress",
          "type": "address"
        },
        {
          "internalType": "string",
          "name": "name",
          "type": "string"
        },
        {
          "internalType": "string",
          "name": "description",
          "type": "string"
        },
        {
          "internalType": "address",
          "name": "owner",
          "type": "address"
        },
        {
          "internalType": "uint256",
          "name": "creationTime",
          "type": "uint256"
        },
        {
          "internalType": "bool",
          "name": "isActive",
          "type": "bool"
        }
      ],
      "stateMutability": "view",
      "type": "function",
      "constant": true
    },
    {
      "inputs": [
        {
          "internalType": "address",
          "name": "",
          "type": "address"
        }
      ],
      "name": "managers",
      "outputs": [
        {
          "internalType": "bool",
          "name": "",
          "type": "bool"
        }
      ],
      "stateMutability": "view",
      "type": "function",
      "constant": true
    },
    {
      "inputs": [
        {
          "internalType": "address",
          "name": "",
          "type": "address"
        }
      ],
      "name": "registeredElections",
      "outputs": [
        {
          "internalType": "bool",
          "name": "",
          "type": "bool"
        }
      ],
      "stateMutability": "view",
      "type": "function",
      "constant": true
    },
    {
      "inputs": [],
      "name": "voterRegistry",
      "outputs": [
        {
          "internalType": "contract VoterRegistry",
          "name": "",
          "type": "address"
        }
      ],
      "stateMutability": "view",
      "type": "function",
      "constant": true
    },
    {
      "inputs": [
        {
          "internalType": "address",
          "name": "_manager",
          "type": "address"
        }
      ],
      "name": "addManager",
      "outputs": [],
      "stateMutability": "nonpayable",
      "type": "function"
    },
    {
      "inputs": [
        {
          "internalType": "address",
          "name": "_manager",
          "type": "address"
        }
      ],
      "name": "removeManager",
      "outputs": [],
      "stateMutability": "nonpayable",
      "type": "function"
    },
    {
      "inputs": [
        {
          "internalType": "string",
          "name": "_name",
          "type": "string"
        },
        {
          "internalType": "string",
          "name": "_description",
          "type": "string"
        }
      ],
      "name": "createElection",
      "outputs": [
        {
          "internalType": "address",
          "name": "",
          "type": "address"
        }
      ],
      "stateMutability": "nonpayable",
      "type": "function"
    },
    {
      "inputs": [
        {
          "internalType": "address",
          "name": "_electionAddress",
          "type": "address"
        }
      ],
      "name": "deactivateElection",
      "outputs": [],
      "stateMutability": "nonpayable",
      "type": "function"
    },
    {
      "inputs": [],
      "name": "getElectionCount",
      "outputs": [
        {
          "internalType": "uint256",
          "name": "",
          "type": "uint256"
        }
      ],
      "stateMutability": "view",
      "type": "function",
      "constant": true
    },
    {
      "inputs": [
        {
          "internalType": "address",
          "name": "_electionAddress",
          "type": "address"
        }
      ],
      "name": "isRegisteredElection",
      "outputs": [
        {
          "internalType": "bool",
          "name": "",
          "type": "bool"
        }
      ],
      "stateMutability": "view",
      "type": "function",
      "constant": true
    },
    {
      "inputs": [
        {
          "internalType": "uint256",
          "name": "_index",
          "type": "uint256"
        }
      ],
      "name": "getElectionInfo",
      "outputs": [
        {
          "internalType": "address",
          "name": "",
          "type": "address"
        },
        {
          "internalType": "string",
          "name": "",
          "type": "string"
        },
        {
          "internalType": "string",
          "name": "",
          "type": "string"
        },
        {
          "internalType": "address",
          "name": "",
          "type": "address"
        },
        {
          "internalType": "uint256",
          "name": "",
          "type": "uint256"
        },
        {
          "internalType": "bool",
          "name": "",
          "type": "bool"
        }
      ],
      "stateMutability": "view",
      "type": "function",
      "constant": true
    },
    {
      "inputs": [],
      "name": "getActiveElections",
      "outputs": [
        {
          "internalType": "address[]",
          "name": "",
          "type": "address[]"
        }
      ],
      "stateMutability": "view",
      "type": "function",
      "constant": true
    }
  ],
  "bytecode": "0x608060405234801561001057600080fd5b5060405161186438038061186483398101604081905261002f9161007c565b60008054336001600160a01b0319918216811783558252600160208190526040909220805460ff1916909217909155600480549091166001600160a01b03929092169190911790556100aa565b60006020828403121561008d578081fd5b81516001600160a01b03811681146100a3578182fd5b9392505050565b6117ab806100b96000396000f3fe60806040523480156200001157600080fd5b5060043610620000e25760003560e01c8063b93cd67b1162000099578063ce99b5df116200006f578063ce99b5df14620001ea578063f851a4401462000201578063fd696904146200020b578063fdff9b4d146200022257620000e2565b8063b93cd67b14620001a3578063bd27eca014620001ba578063be60040e14620001e057620000e2565b80631f6efcf214620000e7578063213785a014620001165780632d06177a146200012f5780635e6fef0114620001485780638a3b63b01462000173578063ac18de43146200018c575b600080fd5b620000fe620000f836600462000dc5565b62000239565b6040516200010d919062000f81565b60405180910390f35b6200012062000257565b6040516200010d9190620010d6565b620001466200014036600462000dc5565b6200025d565b005b6200015f6200015936600462000e5d565b6200030b565b6040516200010d9695949392919062000ed8565b6200017d6200048d565b6040516200010d919062000f32565b620001466200019d36600462000dc5565b62000650565b620000fe620001b436600462000dc5565b620006c6565b620001d1620001cb36600462000df5565b620006db565b6040516200010d919062000ec4565b620001d1620008db565b6200015f620001fb36600462000e5d565b620008ea565b620001d162000b08565b620001466200021c36600462000dc5565b62000b17565b620000fe6200023336600462000dc5565b62000c73565b6001600160a01b031660009081526003602052604090205460ff1690565b60025490565b6000546001600160a01b03163314620002935760405162461bcd60e51b81526004016200028a9062001094565b60405180910390fd5b6001600160a01b038116620002bc5760405162461bcd60e51b81526004016200028a9062000fb8565b6001600160a01b0381166000818152600160208190526040808320805460ff1916909217909155517f3b4a40cccf2058c593542587329dd385be4f0b588db5471fbd9598e56dd7093a9190a250565b600281815481106200031c57600080fd5b6000918252602090912060069091020180546001820180546001600160a01b039092169350906200034d90620010df565b80601f01602080910402602001604051908101604052809291908181526020018280546200037b90620010df565b8015620003cc5780601f10620003a057610100808354040283529160200191620003cc565b820191906000526020600020905b815481529060010190602001808311620003ae57829003601f168201915b505050505090806002018054620003e390620010df565b80601f01602080910402602001604051908101604052809291908181526020018280546200041190620010df565b8015620004625780601f10620004365761010080835404028352916020019162000462565b820191906000526020600020905b8154815290600101906020018083116200044457829003601f168201915b505050506003830154600484015460059094015492936001600160a01b039091169290915060ff1686565b60606000805b600254811015620005025760028181548110620004c057634e487b7160e01b600052603260045260246000fd5b600091825260209091206005600690920201015460ff1615620004ed5781620004e9816200111c565b9250505b80620004f9816200111c565b91505062000493565b5060008167ffffffffffffffff8111156200052d57634e487b7160e01b600052604160045260246000fd5b60405190808252806020026020018201604052801562000557578160200160208202803683370190505b5090506000805b6002548110156200064757600281815481106200058b57634e487b7160e01b600052603260045260246000fd5b600091825260209091206005600690920201015460ff1615620006325760028181548110620005ca57634e487b7160e01b600052603260045260246000fd5b600091825260209091206006909102015483516001600160a01b03909116908490849081106200060a57634e487b7160e01b600052603260045260246000fd5b6001600160a01b0390921660209283029190910190910152816200062e816200111c565b9250505b806200063e816200111c565b9150506200055e565b50909250505090565b6000546001600160a01b031633146200067d5760405162461bcd60e51b81526004016200028a9062001094565b6001600160a01b038116600081815260016020526040808220805460ff19169055517fef69f7d97228658c92417be1b16b19058315de71fecb435d07b7d23728b6bd319190a250565b60036020526000908152604090205460ff1681565b3360009081526001602052604081205460ff16806200070457506000546001600160a01b031633145b620007235760405162461bcd60e51b81526004016200028a9062001018565b6000604051620007339062000c88565b604051809103906000f08015801562000750573d6000803e3d6000fd5b506040805160c0810182526001600160a01b0383811682526020808301898152938301889052336060840152426080840152600160a0840181905260028054918201815560005283517f405787fa12a823e0f2b7631cc41b3ba8828b3321ca811111fa75cd3aa3bb5ace600690920291820180546001600160a01b031916919094161783559351805195965092948594929362000812937f405787fa12a823e0f2b7631cc41b3ba8828b3321ca811111fa75cd3aa3bb5acf0192019062000c96565b50604082015180516200083091600284019160209091019062000c96565b506060820151600380830180546001600160a01b039384166001600160a01b03199091161790556080840151600484015560a0909301516005909201805492151560ff1993841617905584166000818152602093909352604092839020805490921660011790915590517f5daba0299dcf7387af0c6f4232e0fbd9b5bc965b67614eea46655c625ad6029c90620008cb908890339062000f8c565b60405180910390a2509392505050565b6004546001600160a01b031681565b6000606080600080600060028054905087106200091b5760405162461bcd60e51b81526004016200028a9062000fe1565b6000600288815481106200093f57634e487b7160e01b600052603260045260246000fd5b60009182526020918290206040805160c0810190915260069092020180546001600160a01b0316825260018101805492939192918401916200098190620010df565b80601f0160208091040260200160405190810160405280929190818152602001828054620009af90620010df565b801562000a005780601f10620009d45761010080835404028352916020019162000a00565b820191906000526020600020905b815481529060010190602001808311620009e257829003601f168201915b5050505050815260200160028201805462000a1b90620010df565b80601f016020809104026020016040519081016040528092919081815260200182805462000a4990620010df565b801562000a9a5780601f1062000a6e5761010080835404028352916020019162000a9a565b820191906000526020600020905b81548152906001019060200180831162000a7c57829003601f168201915b505050918352505060038201546001600160a01b0316602080830191909152600483015460408084019190915260059093015460ff1615156060928301528351908401519284015191840151608085015160a090950151919d939c50919a5090985091965090945092505050565b6000546001600160a01b031681565b6000546001600160a01b0316331462000b445760405162461bcd60e51b81526004016200028a9062001094565b6001600160a01b03811660009081526003602052604090205460ff1662000b7f5760405162461bcd60e51b81526004016200028a906200105d565b60005b60025481101562000c3b57816001600160a01b03166002828154811062000bb957634e487b7160e01b600052603260045260246000fd5b60009182526020909120600690910201546001600160a01b0316141562000c265760006002828154811062000bfe57634e487b7160e01b600052603260045260246000fd5b60009182526020909120600690910201600501805460ff191691151591909117905562000c3b565b8062000c32816200111c565b91505062000b82565b506040516001600160a01b038216907f219e952350265998078e15332faa18331d9d22713692c9ffed632812c8f8c7e490600090a250565b60016020526000908152604090205460ff1681565b61061b806200115b83390190565b82805462000ca490620010df565b90600052602060002090601f01602090048101928262000cc8576000855562000d13565b82601f1062000ce357805160ff191683800117855562000d13565b8280016001018555821562000d13579182015b8281111562000d1357825182559160200191906001019062000cf6565b5062000d2192915062000d25565b5090565b5b8082111562000d21576000815560010162000d26565b600082601f83011262000d4d578081fd5b813567ffffffffffffffff8082111562000d6b5762000d6b62001144565b604051601f8301601f19168101602001828111828210171562000d925762000d9262001144565b60405282815284830160200186101562000daa578384fd5b82602086016020830137918201602001929092529392505050565b60006020828403121562000dd7578081fd5b81356001600160a01b038116811462000dee578182fd5b9392505050565b6000806040838503121562000e08578081fd5b823567ffffffffffffffff8082111562000e20578283fd5b62000e2e8683870162000d3c565b9350602085013591508082111562000e44578283fd5b5062000e538582860162000d3c565b9150509250929050565b60006020828403121562000e6f578081fd5b5035919050565b60008151808452815b8181101562000e9d5760208185018101518683018201520162000e7f565b8181111562000eaf5782602083870101525b50601f01601f19169290920160200192915050565b6001600160a01b0391909116815260200190565b600060018060a01b03808916835260c0602084015262000efc60c084018962000e76565b838103604085015262000f10818962000e76565b96909116606084015250506080810192909252151560a0909101529392505050565b6020808252825182820181905260009190848201906040850190845b8181101562000f755783516001600160a01b03168352928401929184019160010162000f4e565b50909695505050505050565b901515815260200190565b60006040825262000fa1604083018562000e76565b905060018060a01b03831660208301529392505050565b6020808252600f908201526e496e76616c6964206164647265737360881b604082015260600190565b6020808252601c908201527f456c656374696f6e20696e646578206f7574206f6620626f756e647300000000604082015260600190565b60208082526025908201527f4f6e6c79206d616e61676572732063616e20706572666f726d2074686973206160408201526431ba34b7b760d91b606082015260800190565b60208082526017908201527f456c656374696f6e206e6f742072656769737465726564000000000000000000604082015260600190565b60208082526022908201527f4f6e6c792061646d696e2063616e20706572666f726d2074686973206163746960408201526137b760f11b606082015260800190565b90815260200190565b600281046001821680620010f457607f821691505b602082108114156200111657634e487b7160e01b600052602260045260246000fd5b50919050565b60006000198214156200113d57634e487b7160e01b81526011600452602481fd5b5060010190565b634e487b7160e01b600052604160045260246000fdfe608060405234801561001057600080fd5b5060408051808201909152600d81526c4b796c69616e204d626170706560981b602082015261003e906100a1565b60408051808201909152600d81526c546869657272792048656e727960981b602082015261006b906100a1565b604080518082019091526011815270437269737469616e6f20526f6e616c646f60781b602082015261009c906100a1565b61020b565b600280549060006100b1836101e4565b909155505060408051606081018252600254808252602080830185815260008486018190529283526001808352949092208351815591518051939492936100ff938501929190910190610110565b506040820151816002015590505050565b82805461011c906101a9565b90600052602060002090601f01602090048101928261013e5760008555610184565b82601f1061015757805160ff1916838001178555610184565b82800160010185558215610184579182015b82811115610184578251825591602001919060010190610169565b50610190929150610194565b5090565b5b808211156101905760008155600101610195565b6002810460018216806101bd57607f821691505b602082108114156101de57634e487b7160e01b600052602260045260246000fd5b50919050565b600060001982141561020457634e487b7160e01b81526011600452602481fd5b5060010190565b6104018061021a6000396000f3fe608060405234801561001057600080fd5b506004361061004c5760003560e01c80630121b93f146100515780632d35a8a2146100665780633477ee2e14610084578063a3ec138d146100a6575b600080fd5b61006461005f366004610288565b6100c6565b005b61006e610195565b60405161007b91906102fd565b60405180910390f35b610097610092366004610288565b61019b565b60405161007b93929190610306565b6100b96100b436600461025a565b610245565b60405161007b91906102a0565b3360009081526020819052604090205460ff16156100ff5760405162461bcd60e51b81526004016100f6906102ab565b60405180910390fd5b60008111801561011157506002548111155b61012d5760405162461bcd60e51b81526004016100f6906102d2565b33600090815260208181526040808320805460ff191660019081179091558484529091528120600201805491610162836103a4565b909155505060405181907ffff3c900d938d21d0990d786e819f29b8d05c1ef587b462b939609625b684b1690600090a250565b60025481565b6001602081905260009182526040909120805491810180546101bc90610369565b80601f01602080910402602001604051908101604052809291908181526020018280546101e890610369565b80156102355780601f1061020a57610100808354040283529160200191610235565b820191906000526020600020905b81548152906001019060200180831161021857829003601f168201915b5050505050908060020154905083565b60006020819052908152604090205460ff1681565b60006020828403121561026b578081fd5b81356001600160a01b0381168114610281578182fd5b9392505050565b600060208284031215610299578081fd5b5035919050565b901515815260200190565b6020808252600d908201526c105b1c9958591e481d9bdd1959609a1b604082015260600190565b602080825260119082015270496e76616c69642063616e64696461746560781b604082015260600190565b90815260200190565b600084825260206060818401528451806060850152825b818110156103395786810183015185820160800152820161031d565b8181111561034a5783608083870101525b5060408401949094525050601f91909101601f19160160800192915050565b60028104600182168061037d57607f821691505b6020821081141561039e57634e487b7160e01b600052602260045260246000fd5b50919050565b60006000198214156103c457634e487b7160e01b81526011600452602481fd5b506001019056fea26469706673582212201958a689ba487bb6e2f245ae9299b329fb3c7f68c8870732f93d337d113b777264736f6c63430008000033a264697066735822122093c37613ac6a407d92954a78f1dcb1805ec593c6cd5a69f1972ef4008c70ee5664736f6c63430008000033",
  "immutableReferences": {},
  "source": "// SPDX-License-Identifier: MIT\npragma solidity ^0.8.0;\n\nimport \"./Election.sol\";\nimport \"./VoterRegistry.sol\";\n\n/**\n * @title ElectionFactory\n * @dev Factory contract for creating and managing multiple elections\n */\ncontract ElectionFactory {\n    // Election information\n    struct ElectionInfo {\n        address electionAddress;\n        string name;\n        string description;\n        address owner;\n        uint256 creationTime;\n        bool isActive;\n    }\n    \n    // Admin management\n    address public admin;\n    mapping(address => bool) public managers;\n    \n    // Elections storage\n    ElectionInfo[] public elections;\n    mapping(address => bool) public registeredElections;\n    \n    // Voter registry\n    VoterRegistry public voterRegistry;\n    \n    // Events\n    event ElectionCreated(address indexed electionAddress, string name, address owner);\n    event ElectionDeactivated(address indexed electionAddress);\n    event ManagerAdded(address indexed manager);\n    event ManagerRemoved(address indexed manager);\n    \n    // Modifiers\n    modifier onlyAdmin() {\n        require(msg.sender == admin, \"Only admin can perform this action\");\n        _;\n    }\n    \n    modifier onlyManager() {\n        require(managers[msg.sender] || msg.sender == admin, \"Only managers can perform this action\");\n        _;\n    }\n    \n    /**\n     * @dev Initialize the factory with an admin and voter registry\n     * @param _voterRegistry Address of the deployed VoterRegistry contract\n     */\n    constructor(address _voterRegistry) {\n        admin = msg.sender;\n        managers[msg.sender] = true;\n        voterRegistry = VoterRegistry(_voterRegistry);\n    }\n    \n    /**\n     * @dev Add a manager who can create elections\n     * @param _manager Address of the manager to add\n     */\n    function addManager(address _manager) public onlyAdmin {\n        require(_manager != address(0), \"Invalid address\");\n        managers[_manager] = true;\n        emit ManagerAdded(_manager);\n    }\n    \n    /**\n     * @dev Remove a manager\n     * @param _manager Address of the manager to remove\n     */\n    function removeManager(address _manager) public onlyAdmin {\n        managers[_manager] = false;\n        emit ManagerRemoved(_manager);\n    }\n    \n    /**\n     * @dev Create a new election\n     * @param _name Name of the election\n     * @param _description Description of the election\n     * @return Address of the newly created election\n     */\n    function createElection(string memory _name, string memory _description) public onlyManager returns (address) {\n        // Create a new election without arguments\n        Election newElection = new Election();\n\n        ElectionInfo memory info = ElectionInfo({\n            electionAddress: address(newElection),\n            name: _name, // Store the name separately\n            description: _description, // Store the description separately\n            owner: msg.sender,\n            creationTime: block.timestamp,\n            isActive: true\n        });\n\n        elections.push(info);\n        registeredElections[address(newElection)] = true;\n\n        emit ElectionCreated(address(newElection), _name, msg.sender);\n        return address(newElection);\n    }\n    \n    /**\n     * @dev Deactivate an election\n     * @param _electionAddress Address of the election to deactivate\n     */\n    function deactivateElection(address _electionAddress) public onlyAdmin {\n        require(registeredElections[_electionAddress], \"Election not registered\");\n        \n        for (uint i = 0; i < elections.length; i++) {\n            if (elections[i].electionAddress == _electionAddress) {\n                elections[i].isActive = false;\n                break;\n            }\n        }\n        \n        emit ElectionDeactivated(_electionAddress);\n    }\n    \n    /**\n     * @dev Get the count of all elections created\n     * @return Number of elections\n     */\n    function getElectionCount() public view returns (uint256) {\n        return elections.length;\n    }\n    \n    /**\n     * @dev Check if an address is a registered election\n     * @param _electionAddress Address to check\n     * @return Whether the address is a registered election\n     */\n    function isRegisteredElection(address _electionAddress) public view returns (bool) {\n        return registeredElections[_electionAddress];\n    }\n    \n    /**\n     * @dev Get election information by index\n     * @param _index Index of the election\n     * @return Election address, name, description, owner, creation time, and active status\n     */\n    function getElectionInfo(uint256 _index) public view returns (address, string memory, string memory, address, uint256, bool) {\n        require(_index < elections.length, \"Election index out of bounds\");\n        \n        ElectionInfo memory info = elections[_index];\n        return (\n            info.electionAddress,\n            info.name,\n            info.description,\n            info.owner,\n            info.creationTime,\n            info.isActive\n        );\n    }\n    \n    /**\n     * @dev Get active elections\n     * @return Array of active election addresses\n     */\n    function getActiveElections() public view returns (address[] memory) {\n        uint256 activeCount = 0;\n        \n        // Count active elections\n        for (uint i = 0; i < elections.length; i++) {\n            if (elections[i].isActive) {\n                activeCount++;\n            }\n        }\n        \n        // Populate result array\n        address[] memory activeElections = new address[](activeCount);\n        uint256 currentIndex = 0;\n        \n        for (uint i = 0; i < elections.length; i++) {\n            if (elections[i].isActive) {\n                activeElections[currentIndex] = elections[i].electionAddress;\n                currentIndex++;\n            }\n        }\n        \n        return activeElections;\n    }\n}",
  "sourcePath": "/Users/tayo/Downloads/Voting-Full_stack 5/contracts/ElectionFactory.sol",
  "compiler": {
    "name": "solc",
    "version": "0.8.0+commit.c7dfd78e.Emscripten.clang"
  },
  "schemaVersion": "3.4.16",
  "updatedAt": "2025-05-16T10:06:36.867Z",
  "networkType": "ethereum",
  "devdoc": {
    "details": "Factory contract for creating and managing multiple elections",
    "kind": "dev",
    "methods": {
      "addManager(address)": {
        "details": "Add a manager who can create elections",
        "params": {
          "_manager": "Address of the manager to add"
        }
      },
      "constructor": {
        "details": "Initialize the factory with an admin and voter registry",
        "params": {
          "_voterRegistry": "Address of the deployed VoterRegistry contract"
        }
      },
      "createElection(string,string)": {
        "details": "Create a new election",
        "params": {
          "_description": "Description of the election",
          "_name": "Name of the election"
        },
        "returns": {
          "_0": "Address of the newly created election"
        }
      },
      "deactivateElection(address)": {
        "details": "Deactivate an election",
        "params": {
          "_electionAddress": "Address of the election to deactivate"
        }
      },
      "getActiveElections()": {
        "details": "Get active elections",
        "returns": {
          "_0": "Array of active election addresses"
        }
      },
      "getElectionCount()": {
        "details": "Get the count of all elections created",
        "returns": {
          "_0": "Number of elections"
        }
      },
      "getElectionInfo(uint256)": {
        "details": "Get election information by index",
        "params": {
          "_index": "Index of the election"
        },
        "returns": {
          "_0": "Election address, name, description, owner, creation time, and active status"
        }
      },
      "isRegisteredElection(address)": {
        "details": "Check if an address is a registered election",
        "params": {
          "_electionAddress": "Address to check"
        },
        "returns": {
          "_0": "Whether the address is a registered election"
        }
      },
      "removeManager(address)": {
        "details": "Remove a manager",
        "params": {
          "_manager": "Address of the manager to remove"
        }
      }
    },
    "title": "ElectionFactory",
    "version": 1
  },
  "userdoc": {
    "kind": "user",
    "methods": {},
    "version": 1
  }
}