{
  "contractName": "VoterRegistry",
  "abi": [
    {
      "inputs": [],
      "stateMutability": "nonpayable",
      "type": "constructor"
    },
    {
      "anonymous": false,
      "inputs": [
        {
          "indexed": true,
          "internalType": "address",
          "name": "verifier",
          "type": "address"
        }
      ],
      "name": "VerifierAdded",
      "type": "event"
    },
    {
      "anonymous": false,
      "inputs": [
        {
          "indexed": true,
          "internalType": "address",
          "name": "verifier",
          "type": "address"
        }
      ],
      "name": "VerifierRemoved",
      "type": "event"
    },
    {
      "anonymous": false,
      "inputs": [
        {
          "indexed": true,
          "internalType": "address",
          "name": "voter",
          "type": "address"
        }
      ],
      "name": "VoterRegistered",
      "type": "event"
    },
    {
      "anonymous": false,
      "inputs": [
        {
          "indexed": true,
          "internalType": "address",
          "name": "voter",
          "type": "address"
        }
      ],
      "name": "VoterRemoved",
      "type": "event"
    },
    {
      "anonymous": false,
      "inputs": [
        {
          "indexed": true,
          "internalType": "address",
          "name": "voter",
          "type": "address"
        }
      ],
      "name": "VoterVerified",
      "type": "event"
    },
    {
      "inputs": [],
      "name": "admin",
      "outputs": [
        {
          "internalType": "address",
          "name": "",
          "type": "address"
        }
      ],
      "stateMutability": "view",
      "type": "function",
      "constant": true
    },
    {
      "inputs": [],
      "name": "registeredVoterCount",
      "outputs": [
        {
          "internalType": "uint256",
          "name": "",
          "type": "uint256"
        }
      ],
      "stateMutability": "view",
      "type": "function",
      "constant": true
    },
    {
      "inputs": [],
      "name": "verifiedVoterCount",
      "outputs": [
        {
          "internalType": "uint256",
          "name": "",
          "type": "uint256"
        }
      ],
      "stateMutability": "view",
      "type": "function",
      "constant": true
    },
    {
      "inputs": [
        {
          "internalType": "address",
          "name": "",
          "type": "address"
        }
      ],
      "name": "verifiers",
      "outputs": [
        {
          "internalType": "bool",
          "name": "",
          "type": "bool"
        }
      ],
      "stateMutability": "view",
      "type": "function",
      "constant": true
    },
    {
      "inputs": [
        {
          "internalType": "address",
          "name": "",
          "type": "address"
        }
      ],
      "name": "voters",
      "outputs": [
        {
          "internalType": "bool",
          "name": "isRegistered",
          "type": "bool"
        },
        {
          "internalType": "bool",
          "name": "isVerified",
          "type": "bool"
        },
        {
          "internalType": "string",
          "name": "fullName",
          "type": "string"
        },
        {
          "internalType": "string",
          "name": "idHash",
          "type": "string"
        },
        {
          "internalType": "uint256",
          "name": "registrationTime",
          "type": "uint256"
        }
      ],
      "stateMutability": "view",
      "type": "function",
      "constant": true
    },
    {
      "inputs": [
        {
          "internalType": "address",
          "name": "_verifier",
          "type": "address"
        }
      ],
      "name": "addVerifier",
      "outputs": [],
      "stateMutability": "nonpayable",
      "type": "function"
    },
    {
      "inputs": [
        {
          "internalType": "address",
          "name": "_verifier",
          "type": "address"
        }
      ],
      "name": "removeVerifier",
      "outputs": [],
      "stateMutability": "nonpayable",
      "type": "function"
    },
    {
      "inputs": [
        {
          "internalType": "string",
          "name": "_fullName",
          "type": "string"
        },
        {
          "internalType": "string",
          "name": "_idHash",
          "type": "string"
        }
      ],
      "name": "registerVoter",
      "outputs": [],
      "stateMutability": "nonpayable",
      "type": "function"
    },
    {
      "inputs": [
        {
          "internalType": "address",
          "name": "_voter",
          "type": "address"
        }
      ],
      "name": "verifyVoter",
      "outputs": [],
      "stateMutability": "nonpayable",
      "type": "function"
    },
    {
      "inputs": [
        {
          "internalType": "address",
          "name": "_voter",
          "type": "address"
        }
      ],
      "name": "removeVoter",
      "outputs": [],
      "stateMutability": "nonpayable",
      "type": "function"
    },
    {
      "inputs": [
        {
          "internalType": "address",
          "name": "_voter",
          "type": "address"
        }
      ],
      "name": "isRegistered",
      "outputs": [
        {
          "internalType": "bool",
          "name": "",
          "type": "bool"
        }
      ],
      "stateMutability": "view",
      "type": "function",
      "constant": true
    },
    {
      "inputs": [
        {
          "internalType": "address",
          "name": "_voter",
          "type": "address"
        }
      ],
      "name": "isEligible",
      "outputs": [
        {
          "internalType": "bool",
          "name": "",
          "type": "bool"
        }
      ],
      "stateMutability": "view",
      "type": "function",
      "constant": true
    },
    {
      "inputs": [
        {
          "internalType": "address",
          "name": "_voter",
          "type": "address"
        }
      ],
      "name": "getVoterInfo",
      "outputs": [
        {
          "internalType": "bool",
          "name": "",
          "type": "bool"
        },
        {
          "internalType": "bool",
          "name": "",
          "type": "bool"
        },
        {
          "internalType": "uint256",
          "name": "",
          "type": "uint256"
        }
      ],
      "stateMutability": "view",
      "type": "function",
      "constant": true
    }
  ],
  "bytecode": "0x608060405234801561001057600080fd5b50600080546001600160a01b03191633179055610e04806100326000396000f3fe608060405234801561001057600080fd5b50600436106100cf5760003560e01c80639000b3d61161008c578063af6693dc11610066578063af6693dc146101b9578063c3c5a547146101c1578063ca2dfd0a146101d4578063f851a440146101e7576100cf565b80639000b3d6146101605780639ed1f25514610173578063a3ec138d14610195576100cf565b8063077ed31c146100d457806309bd0950146100f257806366e305fd146101075780636c8244871461012757806386c1ff681461013a5780638a4c88471461014d575b600080fd5b6100dc6101fc565b6040516100e99190610d2c565b60405180910390f35b610105610100366004610a28565b610202565b005b61011a610115366004610a28565b610334565b6040516100e99190610b16565b61011a610135366004610a28565b61037f565b610105610148366004610a28565b610394565b61010561015b366004610a56565b6104c3565b61010561016e366004610a28565b610615565b610186610181366004610a28565b6106b4565b6040516100e993929190610b69565b6101a86101a3366004610a28565b6106e3565b6040516100e9959493929190610b21565b6100dc610829565b61011a6101cf366004610a28565b61082f565b6101056101e2366004610a28565b61084d565b6101ef6108c0565b6040516100e99190610b02565b60035481565b3360009081526001602052604090205460ff168061022a57506000546001600160a01b031633145b61024f5760405162461bcd60e51b815260040161024690610ca4565b60405180910390fd5b6001600160a01b03811660009081526002602052604090205460ff166102875760405162461bcd60e51b815260040161024690610c3f565b6001600160a01b038116600090815260026020526040902054610100900460ff16156102c55760405162461bcd60e51b815260040161024690610bd8565b6001600160a01b0381166000908152600260205260408120805461ff00191661010017905560048054916102f883610d87565b90915550506040516001600160a01b038216907f73d35f4b5dc2339683083dec639ba37f0f5592fc26de0e0603ac5ba2412cd00490600090a250565b6001600160a01b03811660009081526002602052604081205460ff16801561037957506001600160a01b038216600090815260026020526040902054610100900460ff165b92915050565b60016020526000908152604090205460ff1681565b6000546001600160a01b031633146103be5760405162461bcd60e51b815260040161024690610cea565b6001600160a01b03811660009081526002602052604090205460ff166103f65760405162461bcd60e51b815260040161024690610c3f565b6001600160a01b038116600090815260026020526040902054610100900460ff1615610432576004805490600061042c83610d35565b91905055505b6001600160a01b0381166000908152600260205260408120805461ffff191681559061046160018301826108cf565b61046f6002830160006108cf565b50600060039182018190558154919061048783610d35565b90915550506040516001600160a01b038216907fa14a79af012d1756818f9bd59ccfc9ad185a71df86b9392d9059d9e6faf6d64490600090a250565b3360009081526002602052604090205460ff16156104f35760405162461bcd60e51b815260040161024690610c08565b60008251116105145760405162461bcd60e51b815260040161024690610baa565b60008151116105355760405162461bcd60e51b815260040161024690610c6d565b6040805160a08101825260018082526000602080840182815284860188815260608601889052426080870152338452600283529590922084518154935115156101000261ff001991151560ff19909516949094171692909217825593518051939491936105a993850192919091019061090e565b50606082015180516105c591600284019160209091019061090e565b506080919091015160039182015580549060006105e183610d87565b909155505060405133907fb6be2187d059cc2a55fe29e0e503b566e1e0f8c8780096e185429350acffd3dd90600090a25050565b6000546001600160a01b0316331461063f5760405162461bcd60e51b815260040161024690610cea565b6001600160a01b0381166106655760405162461bcd60e51b815260040161024690610b81565b6001600160a01b0381166000818152600160208190526040808320805460ff1916909217909155517f6d05492139c5ea989514a5d2150c028041e5c087e2a39967f67dc7d2655adb819190a250565b6001600160a01b03166000908152600260205260409020805460039091015460ff808316936101009093041691565b6002602052600090815260409020805460018201805460ff808416946101009094041692919061071290610d4c565b80601f016020809104026020016040519081016040528092919081815260200182805461073e90610d4c565b801561078b5780601f106107605761010080835404028352916020019161078b565b820191906000526020600020905b81548152906001019060200180831161076e57829003601f168201915b5050505050908060020180546107a090610d4c565b80601f01602080910402602001604051908101604052809291908181526020018280546107cc90610d4c565b80156108195780601f106107ee57610100808354040283529160200191610819565b820191906000526020600020905b8154815290600101906020018083116107fc57829003601f168201915b5050505050908060030154905085565b60045481565b6001600160a01b031660009081526002602052604090205460ff1690565b6000546001600160a01b031633146108775760405162461bcd60e51b815260040161024690610cea565b6001600160a01b038116600081815260016020526040808220805460ff19169055517f44a3cd4eb5cc5748f6169df057b1cb2ae4c383e87cd94663c430e095d4cba4249190a250565b6000546001600160a01b031681565b5080546108db90610d4c565b6000825580601f106108ed575061090b565b601f01602090049060005260206000209081019061090b9190610992565b50565b82805461091a90610d4c565b90600052602060002090601f01602090048101928261093c5760008555610982565b82601f1061095557805160ff1916838001178555610982565b82800160010185558215610982579182015b82811115610982578251825591602001919060010190610967565b5061098e929150610992565b5090565b5b8082111561098e5760008155600101610993565b600082601f8301126109b7578081fd5b813567ffffffffffffffff808211156109d2576109d2610db8565b604051601f8301601f1916810160200182811182821017156109f6576109f6610db8565b604052828152848301602001861015610a0d578384fd5b82602086016020830137918201602001929092529392505050565b600060208284031215610a39578081fd5b81356001600160a01b0381168114610a4f578182fd5b9392505050565b60008060408385031215610a68578081fd5b823567ffffffffffffffff80821115610a7f578283fd5b610a8b868387016109a7565b93506020850135915080821115610aa0578283fd5b50610aad858286016109a7565b9150509250929050565b60008151808452815b81811015610adc57602081850181015186830182015201610ac0565b81811115610aed5782602083870101525b50601f01601f19169290920160200192915050565b6001600160a01b0391909116815260200190565b901515815260200190565b60008615158252851515602083015260a06040830152610b4460a0830186610ab7565b8281036060840152610b568186610ab7565b9150508260808301529695505050505050565b92151583529015156020830152604082015260600190565b6020808252600f908201526e496e76616c6964206164647265737360881b604082015260600190565b6020808252601490820152734e616d652063616e6e6f7420626520656d70747960601b604082015260600190565b602080825260169082015275159bdd195c88185b1c9958591e481d995c9a599a595960521b604082015260600190565b60208082526018908201527f566f74657220616c726561647920726567697374657265640000000000000000604082015260600190565b602080825260149082015273159bdd195c881b9bdd081c9959da5cdd195c995960621b604082015260600190565b60208082526017908201527f494420686173682063616e6e6f7420626520656d707479000000000000000000604082015260600190565b60208082526026908201527f4f6e6c79207665726966696572732063616e20706572666f726d20746869732060408201526530b1ba34b7b760d11b606082015260800190565b60208082526022908201527f4f6e6c792061646d696e2063616e20706572666f726d2074686973206163746960408201526137b760f11b606082015260800190565b90815260200190565b600081610d4457610d44610da2565b506000190190565b600281046001821680610d6057607f821691505b60208210811415610d8157634e487b7160e01b600052602260045260246000fd5b50919050565b6000600019821415610d9b57610d9b610da2565b5060010190565b634e487b7160e01b600052601160045260246000fd5b634e487b7160e01b600052604160045260246000fdfea264697066735822122093e22225c587bde3c30410fed8a28b880c9046449cf13b6bba5b129f7cc26ab764736f6c63430008000033",
  "immutableReferences": {},
  "source": "// SPDX-License-Identifier: MIT\npragma solidity ^0.8.0;\n\n/**\n * @title VoterRegistry\n * @dev Manages voter registration, identity verification, and eligibility \n */\ncontract VoterRegistry {\n    // Voter information\n    struct VoterInfo {\n        bool isRegistered;\n        bool isVerified;\n        string fullName;\n        string idHash; // Hash of identification document\n        uint256 registrationTime;\n    }\n    \n    // Admin and verifiers\n    address public admin;\n    mapping(address => bool) public verifiers;\n    \n    // Voter data storage\n    mapping(address => VoterInfo) public voters;\n    uint256 public registeredVoterCount;\n    uint256 public verifiedVoterCount;\n    \n    // Events\n    event VoterRegistered(address indexed voter);\n    event VoterVerified(address indexed voter);\n    event VerifierAdded(address indexed verifier);\n    event VerifierRemoved(address indexed verifier);\n    event VoterRemoved(address indexed voter);\n    \n    // Modifiers\n    modifier onlyAdmin() {\n        require(msg.sender == admin, \"Only admin can perform this action\");\n        _;\n    }\n    \n    modifier onlyVerifier() {\n        require(verifiers[msg.sender] || msg.sender == admin, \"Only verifiers can perform this action\");\n        _;\n    }\n    \n    /**\n     * @dev Initialize the registry with the admin\n     */\n    constructor() {\n        admin = msg.sender;\n    }\n    \n    /**\n     * @dev Add a verifier who can verify voters\n     * @param _verifier Address of the verifier\n     */\n    function addVerifier(address _verifier) public onlyAdmin {\n        require(_verifier != address(0), \"Invalid address\");\n        verifiers[_verifier] = true;\n        emit VerifierAdded(_verifier);\n    }\n    \n    /**\n     * @dev Remove a verifier\n     * @param _verifier Address of the verifier to remove\n     */\n    function removeVerifier(address _verifier) public onlyAdmin {\n        verifiers[_verifier] = false;\n        emit VerifierRemoved(_verifier);\n    }\n    \n    /**\n     * @dev Register a new voter\n     * @param _fullName Full name of the voter\n     * @param _idHash Hash of the voter's identification document\n     */\n    function registerVoter(string memory _fullName, string memory _idHash) public {\n        require(!voters[msg.sender].isRegistered, \"Voter already registered\");\n        require(bytes(_fullName).length > 0, \"Name cannot be empty\");\n        require(bytes(_idHash).length > 0, \"ID hash cannot be empty\");\n        \n        voters[msg.sender] = VoterInfo({\n            isRegistered: true,\n            isVerified: false,\n            fullName: _fullName,\n            idHash: _idHash,\n            registrationTime: block.timestamp\n        });\n        \n        registeredVoterCount++;\n        emit VoterRegistered(msg.sender);\n    }\n    \n    /**\n     * @dev Verify a voter's identity (only authorized verifiers)\n     * @param _voter Address of the voter to verify\n     */\n    function verifyVoter(address _voter) public onlyVerifier {\n        require(voters[_voter].isRegistered, \"Voter not registered\");\n        require(!voters[_voter].isVerified, \"Voter already verified\");\n        \n        voters[_voter].isVerified = true;\n        verifiedVoterCount++;\n        \n        emit VoterVerified(_voter);\n    }\n    \n    /**\n     * @dev Remove a voter from the registry (admin only)\n     * @param _voter Address of the voter to remove\n     */\n    function removeVoter(address _voter) public onlyAdmin {\n        require(voters[_voter].isRegistered, \"Voter not registered\");\n        \n        if (voters[_voter].isVerified) {\n            verifiedVoterCount--;\n        }\n        \n        delete voters[_voter];\n        registeredVoterCount--;\n        \n        emit VoterRemoved(_voter);\n    }\n    \n    /**\n     * @dev Check if a voter is registered\n     * @param _voter Address of the voter to check\n     * @return Whether the voter is registered\n     */\n    function isRegistered(address _voter) public view returns (bool) {\n        return voters[_voter].isRegistered;\n    }\n    \n    /**\n     * @dev Check if a voter is verified and eligible\n     * @param _voter Address of the voter to check\n     * @return Whether the voter is verified and eligible to vote\n     */\n    function isEligible(address _voter) public view returns (bool) {\n        return voters[_voter].isRegistered && voters[_voter].isVerified;\n    }\n    \n    /**\n     * @dev Get voter information\n     * @param _voter Address of the voter\n     * @return Whether the voter is registered, verified, and their registration time\n     */\n    function getVoterInfo(address _voter) public view returns (bool, bool, uint256) {\n        return (voters[_voter].isRegistered, voters[_voter].isVerified, voters[_voter].registrationTime);\n    }\n}",
  "sourcePath": "/Users/tayo/Downloads/Voting-Full_stack 5/contracts/VoterRegistry.sol",
  "compiler": {
    "name": "solc",
    "version": "0.8.0+commit.c7dfd78e.Emscripten.clang"
  },
  "schemaVersion": "3.4.16",
  "updatedAt": "2025-05-14T13:20:59.616Z",
  "networkType": "ethereum",
  "devdoc": {
    "details": "Manages voter registration, identity verification, and eligibility ",
    "kind": "dev",
    "methods": {
      "addVerifier(address)": {
        "details": "Add a verifier who can verify voters",
        "params": {
          "_verifier": "Address of the verifier"
        }
      },
      "constructor": {
        "details": "Initialize the registry with the admin"
      },
      "getVoterInfo(address)": {
        "details": "Get voter information",
        "params": {
          "_voter": "Address of the voter"
        },
        "returns": {
          "_0": "Whether the voter is registered, verified, and their registration time"
        }
      },
      "isEligible(address)": {
        "details": "Check if a voter is verified and eligible",
        "params": {
          "_voter": "Address of the voter to check"
        },
        "returns": {
          "_0": "Whether the voter is verified and eligible to vote"
        }
      },
      "isRegistered(address)": {
        "details": "Check if a voter is registered",
        "params": {
          "_voter": "Address of the voter to check"
        },
        "returns": {
          "_0": "Whether the voter is registered"
        }
      },
      "registerVoter(string,string)": {
        "details": "Register a new voter",
        "params": {
          "_fullName": "Full name of the voter",
          "_idHash": "Hash of the voter's identification document"
        }
      },
      "removeVerifier(address)": {
        "details": "Remove a verifier",
        "params": {
          "_verifier": "Address of the verifier to remove"
        }
      },
      "removeVoter(address)": {
        "details": "Remove a voter from the registry (admin only)",
        "params": {
          "_voter": "Address of the voter to remove"
        }
      },
      "verifyVoter(address)": {
        "details": "Verify a voter's identity (only authorized verifiers)",
        "params": {
          "_voter": "Address of the voter to verify"
        }
      }
    },
    "title": "VoterRegistry",
    "version": 1
  },
  "userdoc": {
    "kind": "user",
    "methods": {},
    "version": 1
  }
}